:020000040800F2
:1000000030090020CD0100087B1B00080F170008F5
:10001000791B000857030008972000080000000023
:100020000000000000000000000000007F1B00082E
:1000300059030008000000007D1B0008811B000818
:10004000E7010008E7010008E7010008E7010008F0
:10005000E7010008E7010008E7010008E7010008E0
:10006000E7010008E7010008E7010008E7010008D0
:10007000E7010008E7010008E7010008E7010008C0
:10008000E7010008E7010008E7010008E7010008B0
:10009000E7010008E7010008E7010008E7010008A0
:1000A000E7010008E7010008E7010008E701000890
:1000B000E7010008E7010008E7010008E701000880
:1000C000E7010008E7010008E7010008E701000870
:1000D000E7010008E7010008E7010008E701000860
:1000E000E7010008E7010008E7010008E701000850
:1000F000E7010008E7010008E7010008E701000840
:10010000E7010008E7010008E7010008E70100082F
:10011000111E0008E7010008E7010008E7010008D8
:10012000E7010008E7010008E7010008E70100080F
:1001300000F002F800F03AF80AA090E8000C8244BF
:100140008344AAF10107DA4501D100F02FF8AFF29C
:10015000090EBAE80F0013F0010F18BFFB1A43F0A5
:10016000010318470420000024200000103A24BF97
:1001700078C878C1FAD8520724BF30C830C144BF0C
:1001800004680C607047000000230024002500264E
:10019000103A28BF78C1FBD8520728BF30C148BFEA
:1001A0000B6070471FB51FBD10B510BD00F099F86A
:1001B0001146FFF7F7FF01F07FFF00F0B7F803B437
:1001C000FFF7F2FF03BC00F0BFF8000009488047CA
:1001D00009480047FEE7FEE7FEE7FEE7FEE7FEE729
:1001E000FEE7FEE7FEE7FEE704480549054A064B41
:1001F00070470000E31B00083101000830030020B5
:100200003009002030050020300500204FF00002AA
:1002100000B5134694469646203922BFA0E80C50FC
:10022000A0E80C50B1F12001BFF4F7AF090728BFD7
:10023000A0E80C5048BF0CC05DF804EB890028BF53
:1002400040F8042B08BF704748BF20F8022B11F07C
:10025000804F18BF00F8012B704700004FF0013CA1
:1002600050F8042B51F8043B9A4221D1A2EB0C0325
:10027000934313EACC1317D150F8042B51F8043BE5
:100280009A4215D1A2EB0C03934313EACC130BD182
:1002900050F8042B51F8043B9A4209D1A2EB0C030D
:1002A000934313EACC13DBD04FF00000704700BF3C
:1002B000D01A01BAB1FA81F101F0180122FA01F065
:1002C000CB40C1F12001DBB2C0B2C01A2CFA01F35D
:1002D000D11A914311EAC311E6D1704770477047B4
:1002E0007047754600F02CF8AE4605006946534647
:1002F00020F00700854618B020B5FFF775FFBDE870
:1003000020404FF000064FF000074FF000084FF07C
:10031000000B21F00701AC46ACE8C009ACE8C0090D
:10032000ACE8C009ACE8C0098D46704710B504467A
:10033000AFF300802046BDE81040FFF740BF00004B
:1003400000487047CC02002001491820ABBEFEE7F0
:10035000260002007047FEE7704772B6FEE710B550
:1003600090F821100022022905D00421816380F831
:100370002020012010BD01680B6823F00E030B60E4
:1003800001680B6823F001030B6090F84030C46BE8
:10039000012101FA03F3636080F8211080F8202026
:1003A000104610BD2DE9F05F90F8211000240229BD
:1003B00003D004218163012485E001680A6822F0EA
:1003C0000E020A6001680A6822F001020A603F4ECC
:1003D0003E4FB215DFF8F4C0DFF8F090DFF8ECA084
:1003E000DFF8E8B0DFF8E4E00168783F13011502B8
:1003F000ACF1640CA9F15009AAF13C0AABF1280B4D
:10040000AEF1140E4FF48018B14227D9B9420ED084
:10041000614512D049451DD0514518D0594518D0D5
:10042000714501D1424615E0294EB14201D1012268
:1004300010E0274E1436B14201D110220AE0244EBA
:100440002836B14206D0224A3C32914201D11A46A6
:1004500000E02A461E49091F0A602BE0B94213D06A
:10046000614517D0494522D051451DD059451DD071
:10047000714501D142461AE0B14202D14FF080727B
:1004800015E0134EB14201D1012210E0104E143696
:10049000B14201D110220AE00D4E2836B14206D0F9
:1004A0000B4A3C32914201D11A4600E02A460749E4
:1004B00080394A60012180F82110002180F8201045
:1004C000416B01B188472046BDE8F09F80000240A3
:1004D0000804024070B5044600F018F90546601C97
:1004E00002D004480078044400F010F9401BA042F8
:1004F000FAD370BD000000202DE9F84FDFF8C89155
:10050000002409F1040A0AF1040B23460F270BF11A
:10051000040ED1E00125A54006EA0502AA4276D1E3
:10052000DFF8A8C14E68A6EB0C0866452BD00DDCA1
:10053000032E34D005DC36B3012E19D0022E2FD174
:100540001BE0112E16D0122E2AD119E0B8F5881F03
:1005500019D006DCB8F5803F15D0B8F5801F1FD143
:1005600011E0B8F5001F0ED0B8F5041F18D10AE04D
:10057000CB6815E0CB681B1D12E0CB6808330FE099
:10058000CB680C330CE08B682BB1012B4FF00803C8
:1005900003D0456104E0042302E0056100E000238C
:1005A000FF2A01D8064601E000F104064FEA84055F
:1005B00001D9A5F12005D6F8008007FA05FC28EA44
:1005C0000C0803FA05F548EA0508C6F800804D68EE
:1005D000ED0070D53E4DAE6946F00106AE61AD69E5
:1005E00024F0030605F0010500953A4D06EB050CD5
:1005F000DCF80850A607360F07FA06F825EA0805C2
:10060000DFF8D480404503D14FF0000825E052E0E8
:10061000DFF8C880404502D14FF001081DE0DFF847
:10062000C080404502D14FF0020816E0DFF8B480E8
:10063000404502D14FF003080FE0DFF8AC804045A1
:1006400002D14FF0040808E0DFF8A080404502D155
:100650004FF0050801E04FF0060808FA06F848EAEE
:100660000508CCF808804D68D9F80060ED034D46C8
:1006700001D5164300E096432E604D68DAF800601D
:10068000AD03554601D5164300E096432E604D68F4
:10069000DBF80060ED025D4601D5164300E09643AD
:1006A0002E604D68DEF80060AD02754601D5164338
:1006B00000E096432E60641C0A681646E2407FF410
:1006C00029AFBDE8F88F00000004014000001110C0
:1006D000001002400000014000080140000C0140F1
:1006E000001001400014014000180140001C0140AE
:1006F000C26821EA02030A4043EA024101617047ED
:100700000AB1016170470904FBE7000001488068F5
:100710007047000000000020024881680278114400
:100720008160704700000020074810B5016841F063
:1007300010010160032000F079F8002000F006F8B5
:1007400000F024F8002010BD0020024070B50D4DCF
:1007500004464FF47A712878B1FBF0F00A49096831
:10076000B1FBF0F000F0F0FA48B9102C07D20022EB
:100770002146501E00F03AF800206C6070BD012048
:1007800070BD0000000000200C0000200E4808B5DD
:10079000816941F001018161816901F001010091EC
:1007A000C16941F08051C161C06900F08050009082
:1007B000052000F03BF80548416821F0E06141F078
:1007C0000071416008BD00000010024000000140BF
:1007D000002809DB00F01F02012191404009800040
:1007E00000F1E020C0F8001170470000F0B40E4B9B
:1007F0001B680C46C3F30223C3F10705042D00D97F
:100800000425191D072901D2002300E0DB1E012663
:1008100006FA05F1491E214099409E40761E164079
:100820003143F0BC01F038BC0CED00E0064900F0AB
:10083000070208684FF6FF03184040EA0220034A07
:1008400010430860704700000CED00E00000FA055E
:100850002DE9F0470F46050061D0434E306800F0A7
:100860000700B84209D2306820F0070038433060F2
:10087000306800F00700B84251D128683B4C81072E
:1008800012D5400703D5606840F4E06060602878C6
:10089000000703D5606840F4605060606068A96834
:1008A00020F0F000084360602878C00728D068680E
:1008B000012810D02168022810D0890700292EDADB
:1008C000616821F0030101436160FFF71FFF80466B
:1008D00041F288390DE021688903EFE78901EDE7EE
:1008E000FFF714FFA0EB0801494502D90320BDE83A
:1008F000F0876068696800F00C00B0EB810FEFD101
:10090000306800F00700B8420BD9306820F00700CB
:1009100038433060306800F00700B84201D0012051
:10092000E5E72878400705D56068E96820F4E060CD
:10093000084360602878000706D56068296920F4BC
:10094000605040EAC100606000F038F86168084A11
:10095000C1F30311515CC8400649086006480068AD
:10096000FFF7F4FE0020C2E7002002400010024022
:10097000502100080C000020040000200448054914
:1009800000684968044AC1F30221515CC8407047BD
:100990000C000020001002406021000804480549B6
:1009A00000684968044AC1F3C221515CC8407047DD
:1009B0000C000020001002406021000812A185B048
:1009C0000FC98DE80F0014A0144A00680490516804
:1009D000134801F00C03042B10D0082B0ED1C1F3E7
:1009E0008343C9031DF803000AD5516804AAC1F363
:1009F0004041515C0A4A5043B0FBF1F005B07047EA
:100A000008494843FAE700000203040506070809FD
:100A10000A0B0C0D0E0F1010010200000010024016
:100A200000127A0000093D002DE9F84F040070D053
:100A30002078C04DC00749D06868C0F38100012804
:100A400007D06868C0F38100022809D16868C00334
:100A500006D52868800339D560680028E7D035E0DE
:100A60006068B0F5803F0BD010B1B0F5A02F11D069
:100A7000286820F480302860286820F4802002E074
:100A8000286840F480302860606890B1FFF73EFE2F
:100A900006460AE0286840F480202860F0E700BF9E
:100AA000FFF734FE801B642873D828688003F7D5CD
:100AB0000CE0FFF72BFE064605E000BFFFF726FE21
:100AC000801B6428F0D828688003F7D420789A4ED9
:100AD00080074FF001094FF0000839D5686810F021
:100AE0000C0F07D06868C0F38100022809D168683C
:100AF000C00306D42868800714D52069012808D1CE
:100B000010E02069B0B1C6F80090FFF7FFFD07467E
:100B100005E00AE1FFF7FAFDC01B0228C4D82868E7
:100B20008007F7D52868616920F0F80040EAC10025
:100B300028600DE0C6F80080FFF7E8FD074604E0F6
:100B4000FFF7E4FDC01B022823D828688007F7D4EC
:100B5000207800072CD57948A169D9B1C0F8009058
:100B6000FFF7D4FD074604E0FFF7D0FDC01B0228C5
:100B70000FD8686A8007F7D571484FF4FA510068BA
:100B8000B0FBF1F0009000BF0098411E0091FAD236
:100B90000EE080E0C0F80080FFF7B8FD074604E0F3
:100BA000FFF7B4FDC01B022875D8686A8007F7D428
:100BB0002078400760D5E8690027C00008D4E869BC
:100BC00040F08050E861E869012700F08050009013
:100BD0005C480168C90513D40168834641F48071FB
:100BE0000160FFF793FD824606E000BFFFF78EFD30
:100BF000A0EB0A0064284ED8DBF80000C005F5D54C
:100C0000E06801280AD008B1052813D0286A20F02E
:100C100001002862286A20F0040002E0286A40F0FF
:100C200001002862E06841F2883B98B1FFF76EFD51
:100C300082460BE0286A40F004002862EEE700BF1D
:100C4000FFF764FDA0EB0A0159455AD8286A8007CE
:100C5000F6D50CE0FFF75AFD824605E0FFF756FD9A
:100C6000A0EB0A0159454CD8286A8007F6D41FB179
:100C7000E86920F08050E861E06988B36968C1F3F1
:100C80008101022944D00228C6F8608004D0FFF711
:100C90003DFD044638E034E0FFF738FD074604E048
:100CA000FFF734FDC01B02282BD828688001F7D439
:100CB000206AB0F5803F05D16868A16820F4003053
:100CC00008436860D4E908010843696821F4741195
:100CD00008436860C6F86090FFF718FD044606E018
:100CE00025E000BFFFF712FD001B022809D8286885
:100CF0008001F7D51BE000BFFFF708FD001B0228AD
:100D000002D90320BDE8F88F28688001F4D40EE0F2
:100D10000128F7D06868226A00F48031914204D13A
:100D2000616A00F47010884201D00120EAE70020D7
:100D3000E8E7000000100240000042428004424206
:100D40000C0000200070004010B5401EB0F1807F04
:100D500001D3012010BD4FF0E02460610F21601726
:100D600001F09AF90020A06107202061002010BD49
:100D700010B590F83C20012A22D0012280F83C20B6
:100D8000CA688C6822F4407222434C6822F4806264
:100D900022430C6822F4006222430C6922F4805240
:100DA00022434C6922F400522243C969002322F4F1
:100DB00080420A4301684A6480F83C30002010BD3C
:100DC000022010BD70B590F83C20012A2CD00124DF
:100DD00080F83C40022280F83D2003685A689D68F4
:100DE00022F070060A6832435A60104B02689A4239
:100DF0000ED00F4B9A420BD0B2F1804F08D00D4B62
:100E00009A4205D00C4B9A4202D00C4B9A4204D124
:100E1000496825F080031943916080F83D40002126
:100E200080F83C10084670BD022070BD002C0140C7
:100E3000003401400004004000080040000C004065
:100E40002DE9F0410D46040003D094F83D0018B19F
:100E500008E00120BDE8F081002084F83C00204635
:100E600000F040F8022084F83D002068816844F2D8
:100E7000070291438160211D206800F0B3FE2268C3
:100E800090689169166A2B68AF69034340F203309A
:100E9000814341EA0721A868EF6908434FF6FC4106
:100EA0008843E96840EA0720014328692F6A000166
:100EB00040EA0730084369686D6926F0220646EA71
:100EC0000515294393602268906154F8460B01622E
:100ED000012004F81F09E0752076E0762077A075E0
:100EE0000020B7E730B585B0002400940194029447
:100EF000039400683F49404B404DB0F1804F15D0FE
:100F00003F4CC022A04243D1C86940F00200C861F2
:100F1000C86900F002000490886940F0040088610C
:100F20008869009200F0040004905FE0C86940F016
:100F30000100C861C86900F001000490886940F0B0
:100F400004008861886900F004000490886940F01A
:100F5000080088618869694600F0080004904FF431
:100F6000004000901846FFF7C7FA0820CDE90004BA
:100F7000694628460294FFF7BFFA2248416821F4E7
:100F8000407141F0E06141F48071416005B030BDD5
:100F90001D4CA04215D1C86940F00400C861C86961
:100FA00000F004000490886940F0080088618869B6
:100FB000694600F00800049000922846FFF79CFA6A
:100FC000E4E7124A9042E1D1C86940F00800C861E4
:100FD000C86900F008000490886940F00400886146
:100FE000886900F0040004900320009069461846C8
:100FF000E4E700000010024000080140000C01403E
:10100000000400400000014000080040000C0040C7
:1010100000B585B000210091019102910391164B1A
:101020000268164802219A420FD1826942F00402F6
:1010300082618069039100F0040004904FF47060B5
:10104000CDE9000169460E4811E00E4B9A4210D1DD
:10105000826942F0100282618069039100F0100001
:1010600004904FF47070CDE9000169460648FFF71F
:1010700043FA05B000BD0000002C01400010024002
:1010800000080140003401400010014070B50446E2
:1010900090F83C000D4601280AD0012084F83C005D
:1010A00042B1042A18D0082A2AD00C2A4DD139E09E
:1010B000022070BD206800F0E9FD2068816941F0E0
:1010C000080181612068816921F004018161206843
:1010D00081692A69114311E0206800F007FE206849
:1010E000816941F4006181612068816921F4806136
:1010F0008161206881692A6941EA0221816124E0D5
:10110000206800F029FE2068C16941F00801C16132
:101110002068C16921F00401C1612068C1692A69A0
:10112000114311E0206800F04BFE2068C16941F4D2
:101130000061C1612068C16921F48061C1612068DA
:10114000C1692A6941EA0221C161002084F83C009A
:1011500070BD10B5040003D094F83D0010B107E055
:10116000012010BD002084F83C00204600F01EF84D
:10117000022084F83D00211D206800F033FD01208D
:1011800084F8460084F83E0084F83F0084F840006C
:1011900084F8410084F8420084F8430084F8440055
:1011A00084F8450084F83D00002010BD08B50C4AC5
:1011B00001680C48914207D1816941F40061816165
:1011C000806900F4006009E0074A914207D1816913
:1011D00041F400518161806900F40050009008BD25
:1011E000002C0140001002400034014010B50446BC
:1011F000022249B104290ED0082913D094F84100E5
:10120000012816D0012010BD94F83E000128F9D124
:1012100084F83E200FE094F83F000128F2D184F8D2
:101220003F2008E094F840000128EBD184F84020EA
:1012300001E084F841200122206800F019FD1349E3
:101240002068134A884201D0904203D1436C43F492
:1012500000434364206888420DD090420BD0B0F127
:10126000804F08D00B49884205D00B49884202D0F4
:101270000A49884204D1816801F00701062903D098
:10128000016841F001010160002010BD002C014007
:10129000003401400004004000080040000C004001
:1012A00070477047F8B5026804461068D168536902
:1012B00010F00F0F4FF0000553D003F0010601F4BA
:1012C000907737435FD0C20705D0CA0503D5226C9B
:1012D00042F001022264420705D5DA0703D0226CEE
:1012E00042F002022264820705D5DA0703D0226C9D
:1012F00042F004022264020707D501F020023243C3
:1013000003D0226C42F008022264226C002A34D0FE
:10131000800604D5880602D5204600F0ABFD206883
:101320004069216CC0F38010090700D430B3204617
:1013300000F088FD2068416949061BD5416921F00C
:1013400040014161A06BA8B158494163A06BFFF710
:1013500029F8002811D0A06B416B01B0BDE8F04026
:10136000084783060FD58B060DD52046BDE8F8400B
:1013700000F080BD2046FFF794FFF8BD2046FFF740
:1013800090FF2564F8BD266B2023012E52D1C6069E
:1013900050D5CE064ED51068506800905069400672
:1013A0002AD5A16B086840680004000CEAD0A68D1D
:1013B0008642E7D9E0858869202818D0D06820F4D3
:1013C0008070D0602068416921F00101416120688E
:1013D000416921F04001416184F83E302563206875
:1013E000C16821F01001C160A06BFEF7B8FFA08DAD
:1013F000E18D401A81B219E0A08DE18D401A81B2D1
:10140000E08D0028BED00029BCD0D06820F49070B8
:10141000D0602068426922F00102426184F83E30C7
:1014200025632068C26822F01002C2602046FFF7E0
:1014300037FFF8BD05062BD50D0629D594F83D00DC
:101440002128F6D1A068B0F5805F01D12069B0B144
:10145000206A411C2162216800784860E08C401EAF
:101460000004000CE084E4D12068C16821F0800110
:10147000C1602068C16841F04001C160F8BD206AC8
:101480000088C0F308005060206A801C2062E5E7F5
:101490004006F3D54806F1D5D168204621F0400139
:1014A000D16084F83D3000F031F9F8BD351E0008F8
:1014B00070B5040004D094F83D00002510B106E09A
:1014C000012070BD84F83C50204600F023F8242011
:1014D00084F83D002068C16821F40051C1602046B5
:1014E00000F024FD2068016921F490410161206829
:1014F000416921F02A0141612068C16841F400512D
:10150000C1602564202084F83D0084F83E0000205E
:1015100070BD000070B586B0002400940194029460
:1015200003942E4E05682E49022203232D48B5420E
:1015300029D1CD6945F40025CD61CD6905F400259B
:1015400004958D6945F010058D618969039301F05B
:10155000100104910115CDE9001269460546FEF718
:10156000CBFFF014CDE90004694628460294FEF74B
:10157000C3FF002202213420FFF738F93420FFF79F
:1015800027F906B070BD184EB542FAD1CD6945F4C1
:101590008015CD61CD6905F4801504958D6945F000
:1015A00010058D618D6905F0100504958D6945F074
:1015B00020058D618969039301F020010491B11424
:1015C000CDE900126946FEF797FF0420CDE900043B
:1015D000694606480294FEF78FFFD2E7004C0040B0
:1015E0000010024000100140005000400014014073
:1015F0002DE9F84F044690F83E009A4616460D46EF
:10160000202853D1FDB1F6B194F83C0001284DD00B
:10161000012084F83C0000272764222084F83E0043
:101620002763FFF773F8A6858146E685A0684FF427
:101630008058404501D1206940B12E465FF0000539
:1016400084F83C7027E00120BDE8F88F0026F7E71A
:101650004B46002220212046CDF800A000F0C2FC1D
:1016600008B10320F0E726B1A06840451BD038B18F
:1016700008E020684068C0F3080025F8020B07E086
:10168000206980B12068406800F07F0006F8010BF7
:10169000E08D401EE085E08D0028D9D1202084F81F
:1016A0003E000020D0E720684068EFE70220CBE74B
:1016B00070B50068124988421FD11248417800294C
:1016C0001BD1114C034604F1400206780125127823
:1016D0009B78012E09D00D2A10D0E2545B1CDAB29F
:1016E00082703F2A09D9417005E00A2AFBD1E2182D
:1016F00002F8011C45700170817070BD057070BDED
:10170000004C0040100000204C0200207047FEE713
:101710002DE9F04385B000242548009401940294FB
:101720000394816941F010018161816901F0100128
:101730000491816941F020018161816901F02001FA
:101740000491816941F004018161816901F0040122
:101750000491816941F0080181618069DFF854805A
:1017600000F008004FF4005504900022294640463E
:10177000FEF7C6FFDFF84090EF10002239464846DA
:10178000FEF7BEFF0095022601250396CDE9015420
:1017900069464046FEF7B0FE00970396CDE9015436
:1017A00069464846FEF7A8FE05B0BDE8F083000094
:1017B0000010024000100140000C014010B592B032
:1017C00000240F941C2168461094FEF71FFD202171
:1017D00007A8FEF71BFD2F482D4901604721C0E9EE
:1017E000011440F2E731C0E903148021C0E905414A
:1017F000FFF7AFFC08B1FEF7B0FD0F940FA9254825
:101800001094FFF7DFFA08B1FEF7A7FD6020009003
:101810004FF49670CDE901040394049405940022DA
:1018200069461C480694FFF731FC08B1FEF795FDA8
:10183000042269461748FFF729FC08B1FEF78DFD21
:10184000082269461348FFF721FC08B1FEF785FD21
:101850000C2269460F48FFF719FC08B1FEF77DFD21
:101860000794089409944FF400500A94CDE90B4072
:1018700007A908480E94FFF77BFA08B1FEF76DFD43
:1018800000F0E2FB0348FFF7C3FB12B010BD0000FD
:10189000002C01401400002010B58CB024216846B3
:1018A000FEF7B4FC0024154809944FF080410A94D7
:1018B000C0E900144FF6FF71C0E902410461846180
:1018C0000120CDE90004CDE902040494CDE90540EE
:1018D0000794694609480894FFF7B2FA08B1FEF781
:1018E0003CFD099409A905480A94FFF76BFA002802
:1018F00001D0FEF732FD0CB010BD00005C000020EE
:1019000010B58CB024216846FEF780FC00241548F1
:10191000099413490A94C0E900144FF6FF71C0E915
:101920000241046184610120CDE90004CDE9020493
:101930000494CDE90540079469460A480894FFF7E6
:101940007FFA08B1FEF709FD099409A905480A9430
:10195000FFF738FA002801D0FEF7FFFC0CB010BDED
:1019600000040040A400002010B58CB0242168467B
:10197000FEF74CFC00241548099413490A94C0E969
:1019800000144FF6FF71C0E9024104618461012037
:10199000CDE90004CDE902040494CDE905400794A3
:1019A00069460A480894FFF74BFA08B1FEF7D5FCE0
:1019B000099409A905480A94FFF704FA002801D000
:1019C000FEF7CBFC0CB010BD00080040EC0000207E
:1019D00010B58CB024216846FEF718FC0024154889
:1019E000099413490A94C0E900144FF6FF71C0E945
:1019F0000241046184610120CDE90004CDE90204C3
:101A00000494CDE90540079469460A480894FFF715
:101A100017FA08B1FEF7A1FC099409A905480A9430
:101A2000FFF7D0F9002801D0FEF797FC0CB010BDED
:101A3000000C00403401002010B592B000240F9437
:101A40001C2168461094FEF7E1FB202107A8FEF751
:101A5000DDFB2C482A49C0E900144FF6FF71C0E9AC
:101A60000241046144618461FFF773FB08B1FEF732
:101A700074FC0F940FA923481094FFF7A3F908B141
:101A8000FEF76BFC6020CDE90004029403940494FB
:101A90000594002269461B480694FFF7F7FA08B13F
:101AA000FEF75BFC042269461648FFF7EFFA08B11F
:101AB000FEF753FC082269461248FFF7E7FA08B11F
:101AC000FEF74BFC0C2269460E48FFF7DFFA08B11F
:101AD000FEF743FC0794089409944FF400500A94CD
:101AE000CDE90B4007A907480E94FFF741F908B16B
:101AF000FEF733FC0348FFF78BFA12B010BD00006D
:101B0000003401407C0100200C4810B50A490160F6
:101B10004FF4E1314160002181600C22C160C0E9D5
:101B200004128161C161FFF7C3FC08B1FEF715FC27
:101B3000BDE8104000F0AEBA004C0040C4010020E7
:101B40000C4810B50A4901604FF4E13141600021B1
:101B500081600C22C160C0E904128161C161FFF79C
:101B6000A7FC002803D0BDE81040FEF7F6BB10BD6F
:101B70000050004008020020FEE7FEE77047704773
:101B8000FEF7CABD30B58FB028216846FEF73EFB90
:101B900014210AA8FEF73AFB01210804CDE9001040
:101BA0000024029402250491CDE907504FF4E0107F
:101BB00009906846FEF738FF08B172B6FEE70F20BD
:101BC000CDE90A054FF48060CDE90C4002210AA856
:101BD0000E94FEF73DFE002801D072B6FEE70FB06E
:101BE00030BD7047F0B502681C4B1D4D1D4E1E4F99
:101BF0001E4C4FF0804C984209D0A04207D060455F
:101C000005D0A84203D0B04201D0B84204D122F09E
:101C1000700E4A6842EA0E02984209D0A04207D0EC
:101C2000604505D0A84203D0B04201D0B84203D1EC
:101C300022F44075CA682A434D6922F080022A4383
:101C400002608A68C2620A688262984201D0A04239
:101C500001D10969016301214161F0BD002C0140FE
:101C60000004004000080040000C00400034014027
:101C700010B501F01F030121046A99408C430462EE
:101C8000016A9A401143016210BD0000F0B5026A7A
:101C900022F001020262036A42688469124E24F053
:101CA00073050C682C4323F002058B682B430D4D04
:101CB000A84201D0B04205D123F00807CB683B43CE
:101CC00023F00403A84201D0B04205D14D6922F4AB
:101CD000407215438A692A434260846149684163BE
:101CE0000362F0BD002C014000340140F0B5026AEF
:101CF00022F010020262026A436884690D6824F4CB
:101D0000E64444EA05248D6822F0200242EA0512E6
:101D10000F4D104EA84201D0B04206D1CF6822F03C
:101D2000800242EA071222F04002A84201D0B042EB
:101D300007D14D6923F4406343EA85038D6943EA83
:101D4000850343608461496881630262F0BD0000DD
:101D5000002C014000340140F0B5026A22F4807288
:101D60000262026A4368C46922F4007224F07305B7
:101D70000C68124E2C438D6842EA05220E4DA84293
:101D800001D0B04206D1CF6822F4006242EA0722B5
:101D900022F48062A84201D0B04207D14D6923F4F9
:101DA000405343EA05138D6943EA05134360C46158
:101DB0004968C1630262F0BD002C0140003401405B
:101DC00030B5026A22F480520262046A4268C36932
:101DD0000D6823F4E64343EA05238D6824F4005498
:101DE00044EA0534084DA84202D0084DA84204D167
:101DF0004D6922F4804242EA85124260C36149681B
:101E00000164046230BD0000002C01400034014038
:101E100010B50648FFF746FA4FF400510448FEF7A4
:101E200067FCBDE8104000F035B90000C401002097
:101E30000010014010B5406A0021C185C184FFF740
:101E400030FA10BD0168CA6822F49072CA60016855
:101E50004A6922F001024A61016B012904D101683B
:101E6000CA6822F01002CA60202180F83E100021CA
:101E70000163704708B590F83E10222901D0022076
:101E800008BD82684FF480539A4201D1016921B1A3
:101E9000816A9A421BD04AB10AE00268816A52689C
:101EA000C2F308020A80816A891C08E0026972B1E3
:101EB0000268526802F07F020A70816A491C8162DE
:101EC000C18D491E0904090CC18503D019E00268BF
:101ED0005268F1E70168CA6822F02002CA6001680E
:101EE000CA6822F48072CA6001684A6922F001025D
:101EF0004A61202180F83E10016B012903D0FFF7D1
:101F0000D7FB002008BD002101630168CA6822F0E8
:101F10001002CA6001680A68D20602D50A684968D8
:101F20000091818DFFF7BCF9EBE7000070B5044626
:101F300000680169E26821F440511143016121699F
:101F4000A0680843616908432168CA6841F20C63CC
:101F50009A430243CA6020684169A26921F4407132
:101F6000114341611E492068884202D1FEF716FDE7
:101F700001E0FEF703FD00EBC00101EB0012606819
:101F800064218000B2FBF0F3B3FBF1F36FF01806AD
:101F90007343B2FBF0F5B2FBF0F605EB8305322399
:101FA00003EB0515B5FBF1F5B6FBF1F605F0F00511
:101FB00005EB0615B2FBF0F6B2FBF0F0B0FBF1F06A
:101FC0006FF01802504306EB800003EB0010B0FBEB
:101FD000F1F0216800F00F002844886070BD000017
:101FE000003801402DE9F041984617460E46044658
:101FF000069D1DE0681C1BD02DB1FEF787FBA0EBF2
:102000000800A84214D92068C16821F4D071C160C9
:102010002068416921F001014161202084F83D00E0
:1020200084F83E00002084F83C000320BDE8F081E5
:102030002068006836EA000004D00020B842D9D0F9
:102040000020F3E70120F9E7104810B5016841F4DA
:102050000041016000210E48FFF7C8F804210C4838
:10206000FFF7C4F808210A48FFF7C0F80C21084818
:10207000FFF7BCF80549002010390860091D086009
:10208000091D0860091D086010BD0000442C0140B6
:10209000140000207047FEE70907090E002804DB42
:1020A00000F1E02080F80014704700F00F0000F10C
:1020B000E02080F8141D704788B0FEF735FBFFF76D
:1020C00061FDFFF725FBFFF779FBFFF7E5FBFFF766
:1020D00017FCFFF749FCFFF77BFCFFF7ADFCFFF7B0
:1020E00013FDFFF72DFDDFF84C80134C40F6FF7514
:1020F0004FF4FA764FF400572B46062269460F48F4
:10210000FFF776FA3046FEF7E5F90DA16846FEF7CF
:10211000A5F828B10CA16846FEF7A0F80028EBD17D
:1021200039464046FEF7E4FA2068C0F59670206014
:10213000E2E7000000100140342C0140C4010020FF
:10214000303030303030000030303030303100004E
:102150000000000000000000010203040607080957
:102160000000000001020304882100080000002094
:10217000140000006C0100089C21000814000020DD
:102180001C09000088010008010000001000000088
:0C219000000000000024F400000000002B
:0400000508000131BD
:00000001FF
