:020000040800F2
:1000000068080020CD0100086B1500085511000894
:1000100069150008D3020008F1180008000000006C
:100020000000000000000000000000006F15000844
:10003000D5020008000000006D15000871150008C9
:10004000E7010008E7010008E7010008E7010008F0
:10005000E7010008E7010008E7010008E7010008E0
:10006000E7010008E7010008E7010008E7010008D0
:10007000E7010008E7010008E7010008E7010008C0
:10008000E7010008E7010008E7010008E7010008B0
:10009000E7010008E7010008E7010008E7010008A0
:1000A000E7010008E7010008E7010008E701000890
:1000B000E7010008E7010008E7010008E701000880
:1000C000E7010008E7010008E7010008E701000870
:1000D000E7010008E7010008E7010008E701000860
:1000E000E7010008E7010008E7010008E701000850
:1000F000E7010008E7010008E7010008E701000840
:10010000E7010008E7010008E7010008E70100082F
:10011000E7010008E7010008E7010008E70100081F
:10012000E7010008E7010008E7010008E70100080F
:1001300000F002F800F03AF80AA090E8000C8244BF
:100140008344AAF10107DA4501D100F02FF8AFF29C
:10015000090EBAE80F0013F0010F18BFFB1A43F0A5
:10016000010318471018000030180000103A24BF8F
:1001700078C878C1FAD8520724BF30C830C144BF0C
:1001800004680C607047000000230024002500264E
:10019000103A28BF78C1FBD8520728BF30C148BFEA
:1001A0000B6070471FB51FBD10B510BD00F058F8AB
:1001B0001146FFF7F7FF01F0ADFB00F076F803B44E
:1001C000FFF7F2FF03BC00F07DF80000094880470C
:1001D00009480047FEE7FEE7FEE7FEE7FEE7FEE729
:1001E000FEE7FEE7FEE7FEE704480549054A064B41
:1001F00070470000D3150008310100086802002094
:100200006808002068040020680400204FF0000205
:1002100000B5134694469646203922BFA0E80C50FC
:10022000A0E80C50B1F12001BFF4F7AF090728BFD7
:10023000A0E80C5048BF0CC05DF804EB890028BF53
:1002400040F8042B08BF704748BF20F8022B11F07C
:10025000804F18BF00F8012B7047704770477047F8
:10026000754600F02BF8AE4605006946534620F06F
:100270000700854618B020B5FFF7B6FFBDE820405F
:100280004FF000064FF000074FF000084FF0000B52
:1002900021F00701AC46ACE8C009ACE8C009ACE805
:1002A000C009ACE8C0098D46704710B50446AFF3ED
:1002B00000802046BDE81040FFF781BF004870472E
:1002C0000402002001491820ABBEFEE72600020010
:1002D0007047FEE7704772B6FEE7000070B504464F
:1002E00000F018F90546601C02D004480078044468
:1002F00000F010F9401BA042FAD370BD00000020AE
:100300002DE9F84FDFF8C891002409F1040A0AF139
:10031000040B23460F270BF1040ED1E00125A54065
:1003200006EA0502AA4276D1DFF8A8C14E68A6EB1C
:100330000C0866452BD00DDC032E34D005DC36B31B
:10034000012E19D0022E2FD11BE0112E16D0122E05
:100350002AD119E0B8F5881F19D006DCB8F5803F1E
:1003600015D0B8F5801F1FD111E0B8F5001F0ED0D1
:10037000B8F5041F18D10AE0CB6815E0CB681B1D47
:1003800012E0CB6808330FE0CB680C330CE08B68CD
:100390002BB1012B4FF0080303D0456104E0042387
:1003A00002E0056100E00023FF2A01D8064601E0D3
:1003B00000F104064FEA840501D9A5F12005D6F81D
:1003C000008007FA05FC28EA0C0803FA05F548EA5C
:1003D0000508C6F800804D68ED0070D53E4DAE6949
:1003E00046F00106AE61AD6924F0030605F0010593
:1003F00000953A4D06EB050CDCF80850A607360FC1
:1004000007FA06F825EA0805DFF8D480404503D14D
:100410004FF0000825E052E0DFF8C880404502D1E7
:100420004FF001081DE0DFF8C080404502D14FF0D9
:10043000020816E0DFF8B480404502D14FF003080F
:100440000FE0DFF8AC80404502D14FF0040808E02F
:10045000DFF8A080404502D14FF0050801E04FF0E1
:10046000060808FA06F848EA0508CCF808804D683E
:10047000D9F80060ED034D4601D5164300E09643E0
:100480002E604D68DAF80060AD03554601D516437D
:1004900000E096432E604D68DBF80060ED025D469B
:1004A00001D5164300E096432E604D68DEF80060EB
:1004B000AD02754601D5164300E096432E60641CDC
:1004C0000A681646E2407FF429AFBDE8F88F0000C5
:1004D0000004014000001110001002400000014023
:1004E00000080140000C01400010014000140140D0
:1004F00000180140001C0140C26821EA02030A40C2
:1005000043EA0241016170470AB101617047090481
:10051000FBE70000014880687047000000000020F1
:100520000248816802781144816070470000002011
:10053000074810B5016841F010010160032000F088
:1005400067F80F2000F006F800F024F8002010BD36
:100550000020024070B50D4D04464FF47A712878A2
:10056000B1FBF0F00A490968B1FBF0F000F0DEFAE7
:1005700048B9102C07D200222146501E00F028F85E
:1005800000206C6070BD012070BD000000000020E4
:100590000C0000200C4808B5816941F0010181611F
:1005A000816901F001010091C16941F08051C1618F
:1005B000C06900F0805000900448416821F0E0617B
:1005C00041F00071416008BD001002400000014090
:1005D000F0B40E4B1B680C46C3F30223C3F10705AE
:1005E000042D00D90425191D072901D2002300E09C
:1005F000DB1E012606FA05F1491E214099409E4066
:10060000761E16403143F0BC01F073B90CED00E0EA
:10061000064900F0070208684FF6FF03184040EA59
:100620000220034A10430860704700000CED00E010
:100630000000FA052DE9F0470F46050061D0434E52
:10064000306800F00700B84209D2306820F0070097
:1006500038433060306800F00700B84251D1286854
:100660003B4C810712D5400703D5606840F4E06039
:1006700060602878000703D5606840F460506060CF
:100680006068A96820F0F000084360602878C0071F
:1006900028D06868012810D02168022810D0890766
:1006A00000292EDA616821F0030101436160FFF740
:1006B00031FF804641F288390DE021688903EFE778
:1006C0008901EDE7FFF726FFA0EB0801494502D9B4
:1006D0000320BDE8F0876068696800F00C00B0EBAB
:1006E000810FEFD1306800F00700B8420BD93068B5
:1006F00020F0070038433060306800F00700B8424F
:1007000001D00120E5E72878400705D56068E96851
:1007100020F4E060084360602878000706D5606830
:10072000296920F4605040EAC100606000F038F8A8
:100730006168084AC1F30311515CC840064908606A
:1007400006480068FFF706FF0020C2E700200240CD
:10075000001002405C1900080C000020040000207A
:100760000448054900684968044AC1F30221515C04
:10077000C84070470C000020001002406C190008AF
:100780000448054900684968044AC1F3C221515C24
:10079000C84070470C000020001002406C1900088F
:1007A00012A185B00FC98DE80F0014A0144A00688B
:1007B00004905168134801F00C03042B10D0082B4F
:1007C0000ED1C1F38343C9031DF803000AD5516854
:1007D00004AAC1F34041515C0A4A5043B0FBF1F016
:1007E00005B0704708494843FAE7000002030405D2
:1007F000060708090A0B0C0D0E0F1010010200006D
:100800000010024000127A0000093D002DE9F84F67
:10081000040070D02078C04DC00749D06868C0F38C
:100820008100012807D06868C0F38100022809D13F
:100830006868C00306D52868800339D56068002839
:10084000E7D035E06068B0F5803F0BD010B1B0F56F
:10085000A02F11D0286820F480302860286820F468
:10086000802002E0286840F480302860606890B101
:10087000FFF750FE06460AE0286840F48020286012
:10088000F0E700BFFFF746FE801B642873D8286896
:100890008003F7D50CE0FFF73DFE064605E000BFFC
:1008A000FFF738FE801B6428F0D828688003F7D44F
:1008B00020789A4E80074FF001094FF0000839D593
:1008C000686810F00C0F07D06868C0F38100022838
:1008D00009D16868C00306D42868800714D5206948
:1008E000012808D110E02069B0B1C6F80090FFF7E8
:1008F00011FE074605E00AE1FFF70CFEC01B0228C7
:10090000C4D828688007F7D52868616920F0F80006
:1009100040EAC10028600DE0C6F80080FFF7FAFD4C
:10092000074604E0FFF7F6FDC01B022823D828681D
:100930008007F7D4207800072CD57948A169D9B170
:10094000C0F80090FFF7E6FD074604E0FFF7E2FD80
:10095000C01B02280FD8686A8007F7D571484FF48A
:10096000FA510068B0FBF1F0009000BF0098411E02
:100970000091FAD20EE080E0C0F80080FFF7CAFDD7
:10098000074604E0FFF7C6FDC01B022875D8686A59
:100990008007F7D42078400760D5E8690027C000B9
:1009A00008D4E86940F08050E861E869012700F068
:1009B000805000905C480168C90513D401688346E3
:1009C00041F480710160FFF7A5FD824606E000BF9B
:1009D000FFF7A0FDA0EB0A0064284ED8DBF800006A
:1009E000C005F5D5E06801280AD008B1052813D064
:1009F000286A20F001002862286A20F0040002E042
:100A0000286A40F001002862E06841F2883B98B112
:100A1000FFF780FD82460BE0286A40F00400286260
:100A2000EEE700BFFFF776FDA0EB0A0159455AD863
:100A3000286A8007F6D50CE0FFF76CFD824605E0DA
:100A4000FFF768FDA0EB0A0159454CD8286A8007DA
:100A5000F6D41FB1E86920F08050E861E06988B3FE
:100A60006968C1F38101022944D00228C6F8608078
:100A700004D0FFF74FFD044638E034E0FFF74AFDAD
:100A8000074604E0FFF746FDC01B02282BD8286864
:100A90008001F7D4206AB0F5803F05D16868A1686D
:100AA00020F4003008436860D4E90801084369680D
:100AB00021F4741108436860C6F86090FFF72AFDBE
:100AC000044606E025E000BFFFF724FD001B0228D6
:100AD00009D828688001F7D51BE000BFFFF71AFD91
:100AE000001B022802D90320BDE8F88F2868800186
:100AF000F4D40EE00128F7D06868226A00F480314F
:100B0000914204D1616A00F47010884201D0012042
:100B1000EAE70020E8E7000000100240000042423F
:100B2000800442420C0000200070004010B5401EBE
:100B3000B0F1807F01D3012010BD4FF0E02460614F
:100B40000F21601700F0D5FE0020A0610720206172
:100B5000002010BD10B590F83C20012A22D00122BF
:100B600080F83C20CA688C6822F4407222434C68AA
:100B700022F4806222430C6822F4006222430C6952
:100B800022F4805222434C6922F400522243C96964
:100B9000002322F480420A4301684A6480F83C3012
:100BA000002010BD022010BD70B590F83C20012A35
:100BB0002CD0012480F83C40022280F83D200368BC
:100BC0005A689D6822F070060A6832435A60104BDA
:100BD00002689A420ED00F4B9A420BD0B2F1804F6E
:100BE00008D00D4B9A4205D00C4B9A4202D00C4BC8
:100BF0009A4204D1496825F080031943916080F836
:100C00003D40002180F83C10084670BD022070BDB8
:100C1000002C014000340140000400400008004066
:100C2000000C00402DE9F0410D46040003D094F87B
:100C30003D0018B108E00120BDE8F081002084F8F3
:100C40003C00204600F040F8022084F83D00206877
:100C5000816844F2070291438160211D206800F001
:100C6000B9FC226890689169166A2B68AF690343E2
:100C700040F20330814341EA0721A868EF69084345
:100C80004FF6FC418843E96840EA072001432869A0
:100C90002F6A000140EA0730084369686D6926F051
:100CA000220646EA0515294393602268906154F8AC
:100CB000460B0162012004F81F09E0752076E076FA
:100CC0002077A0750020B7E730B585B000240094E8
:100CD00001940294039400683F49404B404DB0F1A9
:100CE000804F15D03F4CC022A04243D1C86940F08C
:100CF0000200C861C86900F002000490886940F0F1
:100D0000040088618869009200F0040004905FE0AC
:100D1000C86940F00100C861C86900F00100049092
:100D2000886940F004008861886900F0040004903C
:100D3000886940F0080088618869694600F0080009
:100D400004904FF4004000901846FFF7D9FA0820AD
:100D5000CDE90004694628460294FFF7D1FA2248FB
:100D6000416821F4407141F0E06141F480714160DB
:100D700005B030BD1D4CA04215D1C86940F004003B
:100D8000C861C86900F004000490886940F0080058
:100D900088618869694600F008000490009228463E
:100DA000FFF7AEFAE4E7124A9042E1D1C86940F099
:100DB0000800C861C86900F008000490886940F024
:100DC00004008861886900F004000490032000900A
:100DD00069461846E4E700000010024000080140A0
:100DE000000C0140000400400000014000080040E9
:100DF000000C004000B585B00021009101910291E6
:100E00000391154B0268154802219A420FD182695D
:100E100042F0040282618069039100F004000490B2
:100E20004FF47060CDE9000169460D4810E00D4BAC
:100E30009A420FD1826942F0100282618069039167
:100E400000F010000490C020CDE90001694606487A
:100E5000FFF756FA05B000BD002C0140001002401B
:100E600000080140003401400010014070B5044604
:100E700090F83C000D4601280AD0012084F83C007F
:100E800042B1042A18D0082A2AD00C2A4DD139E0C0
:100E9000022070BD206800F0F1FB2068816941F0FC
:100EA000080181612068816921F004018161206865
:100EB00081692A69114311E0206800F00FFC206865
:100EC000816941F4006181612068816921F4806158
:100ED0008161206881692A6941EA0221816124E0F7
:100EE000206800F031FC2068C16941F00801C1614F
:100EF0002068C16921F00401C1612068C1692A69C3
:100F0000114311E0206800F053FC2068C16941F4EE
:100F10000061C1612068C16921F48061C1612068FC
:100F2000C1692A6941EA0221C161002084F83C00BC
:100F300070BD10B5040003D094F83D0010B107E077
:100F4000012010BD002084F83C00204600F01EF86F
:100F5000022084F83D00211D206800F03BFB0120A9
:100F600084F8460084F83E0084F83F0084F840008E
:100F700084F8410084F8420084F8430084F8440077
:100F800084F8450084F83D00002010BD08B50C4AE7
:100F900001680C48914207D1816941F40061816187
:100FA000806900F4006009E0074A914207D1816935
:100FB00041F400518161806900F40050009008BD47
:100FC000002C0140001002400034014010B50446DE
:100FD000022249B104290ED0082913D094F8410007
:100FE000012816D0012010BD94F83E000128F9D147
:100FF00084F83E200FE094F83F000128F2D184F8F5
:101000003F2008E094F840000128EBD184F840200C
:1010100001E084F841200122206800F021FB1349FF
:101020002068134A884201D0904203D1436C43F4B4
:1010300000434364206888420DD090420BD0B0F149
:10104000804F08D00B49884205D00B49884202D016
:101050000A49884204D1816801F00701062903D0BA
:10106000016841F001010160002010BD002C014029
:10107000003401400004004000080040000C004023
:1010800070B5040004D094F83D00002510B106E0CE
:10109000012070BD84F83C50204600F023F8242045
:1010A00084F83D002068C16821F40051C1602046E9
:1010B00000F0A6FB2068016921F4904101612068DD
:1010C000416921F02A0141612068C16841F4005161
:1010D000C1602564202084F83D0084F83E00002093
:1010E00070BD000030B585B00024009401940294D6
:1010F000039400681449884224D11448C16941F41A
:101100000021C161C16901F400210491816941F0AC
:101110001001816180690E4D00F0100004904FF4C1
:1011200080600090022001900320039069462846C9
:10113000FFF7E6F8E814CDE9000469462846029472
:10114000FFF7DEF805B030BD004C00400010024053
:1011500000100140FEE700002DE9F04385B00024B7
:1011600025480094019402940394816941F0100190
:101170008161816901F010010491816941F02001D0
:101180008161816901F020010491816941F00401CC
:101190008161816901F004010491816941F00801D4
:1011A00081618069DFF8548000F008004FF4005539
:1011B0000490002229464046FFF7A6F9DFF8409048
:1011C000EF10002239464846FFF79EF900950226A7
:1011D00001250396CDE9015469464046FFF790F892
:1011E00000970396CDE9015469464846FFF788F811
:1011F00005B0BDE8F083000000100240001001407F
:10120000000C014010B592B000240F941C216846D8
:101210001094FEF7FBFF202107A8FEF7F7FF2F48E9
:101220002D4901604721C0E9011440F2E731C0E9CE
:1012300003148021C0E90541FFF77BFE08B1FFF7E9
:101240004AF80F940FA925481094FFF7ADFC08B198
:10125000FFF741F8602000904FF49670CDE901044B
:10126000039404940594002269461C480694FFF7F1
:10127000FDFD08B1FFF72FF8042269461748FFF774
:10128000F5FD08B1FFF727F8082269461348FFF774
:10129000EDFD08B1FFF71FF80C2269460F48FFF774
:1012A000E5FD08B1FFF717F80794089409944FF487
:1012B00000500A94CDE90B4007A908480E94FFF7A7
:1012C00049FC08B1FFF707F800F0F6FA0348FFF70A
:1012D00091FD12B010BD0000002C01401000002054
:1012E00010B58CB024216846FEF790FF0024154805
:1012F00009944FF080410A94C0E900144FF6FF7141
:10130000C0E90241046184610120CDE90004CDE916
:1013100002040494CDE905400794694609480894FD
:10132000FFF780FC08B1FEF7D6FF099409A905482C
:101330000A94FFF739FC002801D0FEF7CCFF0CB06F
:1013400010BD00005800002010B58CB02421684664
:10135000FEF75CFF00241548099413490A94C0E97C
:1013600000144FF6FF71C0E902410461846101205D
:10137000CDE90004CDE902040494CDE905400794C9
:1013800069460A480894FFF74DFC08B1FEF7A3FF31
:10139000099409A905480A94FFF706FC002801D022
:1013A000FEF799FF0CB010BD00040040A000002023
:1013B00010B58CB024216846FEF728FF002415489C
:1013C000099413490A94C0E900144FF6FF71C0E96B
:1013D0000241046184610120CDE90004CDE90204E9
:1013E0000494CDE90540079469460A480894FFF73C
:1013F00019FC08B1FEF76FFF099409A905480A9482
:10140000FFF7D2FB002801D0FEF765FF0CB010BD3E
:1014100000080040E800002010B58CB02421684688
:10142000FEF7F4FE00241548099413490A94C0E914
:1014300000144FF6FF71C0E902410461846101208C
:10144000CDE90004CDE902040494CDE905400794F8
:1014500069460A480894FFF7E5FB08B1FEF73BFF31
:10146000099409A905480A94FFF79EFB002801D0BA
:10147000FEF731FF0CB010BD000C00403001002021
:1014800010B592B000240F941C2168461094FEF70A
:10149000BDFE202107A8FEF7B9FE24482249C0E975
:1014A00000144FF6FF71C0E9024104614461846198
:1014B000FFF73FFD08B1FEF70EFF0F940FA91B4881
:1014C0001094FFF771FB08B1FEF705FF6020CDE92E
:1014D000000402940394049405940022694613487E
:1014E0000694FFF7C3FC08B1FEF7F5FE0422694637
:1014F0000E48FFF7BBFC08B1FEF7EDFE0794089419
:1015000009944FF400500A94CDE90B4007A907480D
:101510000E94FFF71FFB08B1FEF7DDFE0348FFF74F
:1015200069FC12B010BD00000034014078010020B9
:101530000C4810B50A4901604FF4E13141600021C7
:1015400081600C22C160C0E904128161C161FFF7B2
:1015500097FD002803D0BDE81040FEF7BCBE10BDCB
:10156000004C0040C0010020FEE7FEE770477047D6
:10157000FEF7D6BF30B58FB028216846FEF746FE8D
:1015800014210AA8FEF742FE01210804CDE900104B
:101590000024029402250491CDE907504FF4E01095
:1015A00009906846FFF732F908B172B6FEE70F20DE
:1015B000CDE90A054FF48060CDE90C4002210AA86C
:1015C0000E94FFF737F8002801D072B6FEE70FB08F
:1015D00030BD7047F0B502681C4B1D4D1D4E1E4FAF
:1015E0001E4C4FF0804C984209D0A04207D0604575
:1015F00005D0A84203D0B04201D0B84204D122F0B5
:10160000700E4A6842EA0E02984209D0A04207D002
:10161000604505D0A84203D0B04201D0B84203D102
:1016200022F44075CA682A434D6922F080022A4399
:1016300002608A68C2620A688262984201D0A0424F
:1016400001D10969016301214161F0BD002C014014
:101650000004004000080040000C0040003401403D
:1016600010B501F01F030121046A99408C43046204
:10167000016A9A401143016210BD0000F0B5026A90
:1016800022F001020262036A42688469124E24F069
:1016900073050C682C4323F002058B682B430D4D1A
:1016A000A84201D0B04205D123F00807CB683B43E4
:1016B00023F00403A84201D0B04205D14D6922F4C1
:1016C000407215438A692A434260846149684163D4
:1016D0000362F0BD002C014000340140F0B5026A05
:1016E00022F010020262026A436884690D6824F4E1
:1016F000E64444EA05248D6822F0200242EA0512FD
:101700000F4D104EA84201D0B04206D1CF6822F052
:10171000800242EA071222F04002A84201D0B04201
:1017200007D14D6923F4406343EA85038D6943EA99
:10173000850343608461496881630262F0BD0000F3
:10174000002C014000340140F0B5026A22F480729E
:101750000262026A4368C46922F4007224F07305CD
:101760000C68124E2C438D6842EA05220E4DA842A9
:1017700001D0B04206D1CF6822F4006242EA0722CB
:1017800022F48062A84201D0B04207D14D6923F40F
:10179000405343EA05138D6943EA05134360C4616E
:1017A0004968C1630262F0BD002C01400034014071
:1017B00030B5026A22F480520262046A4268C36948
:1017C0000D6823F4E64343EA05238D6824F40054AE
:1017D00044EA0534084DA84202D0084DA84204D17D
:1017E0004D6922F4804242EA85124260C361496831
:1017F0000164046230BD0000002C0140003401404F
:1018000070B5044600680169E26821F44051114353
:1018100001612169A0680843616908432168CA68B9
:1018200041F20C639A430243CA6020684169A2698D
:1018300021F44071114341611E492068884202D160
:10184000FEF79EFF01E0FEF78BFF00EBC00101EB0E
:101850000012606864218000B2FBF0F3B3FBF1F387
:101860006FF018067343B2FBF0F5B2FBF0F605EB30
:101870008305322303EB0515B5FBF1F5B6FBF1F655
:1018800005F0F00505EB0615B2FBF0F6B2FBF0F043
:10189000B0FBF1F06FF01802504306EB800003EB51
:1018A0000010B0FBF1F0216800F00F0028448860C0
:1018B00070BD0000003801400B4810B5016841F4CC
:1018C0000041016000210948FFF780FB042107481F
:1018D000FFF77CFB08210548FFF778FBBDE81040C7
:1018E0000C210248FFF772BB442C0140100000207D
:1018F000FEE70907090E002804DB00F1E02080F86C
:101900000014704700F00F0000F1E02080F8141D73
:1019100070470000FEF70CFEFFF72CFEFFF71CFCE3
:10192000FFF770FCFFF7DCFCFFF70EFDFFF740FD53
:10193000FFF772FDFFF7A4FDFFF7FAFD064D4FF428
:1019400000544FF4FA7621462846FEF7D5FD30467E
:10195000FEF7C4FCF7E700000010014000000000A3
:10196000000000000102030406070809000000004F
:101970000102030494190008000000201000000078
:101980006C010008A419000810000020580800008D
:1019900088010008010000001000000000000000A5
:0419A0000024F4002B
:0400000508000131BD
:00000001FF
