:020000040800F2
:10000000100D0024C1030008E7800008937A00085F
:10001000D980000815200008079B00080000000098
:1000200000000000000000000000000085850008BE
:10003000C323000800000000EB800008D5850008FD
:10004000DB030008DB030008DB030008DB03000818
:10005000DB030008DB030008DB030008DB03000808
:10006000DB030008DB030008DB030008BD200008F9
:10007000DB030008DB030008DB030008DB030008E8
:10008000DB030008DB030008DB030008DB030008D8
:10009000DB030008DB030008DB030008DB030008C8
:1000A000DB030008DB030008DB030008DB030008B8
:1000B000DB030008DB030008DB030008DB030008A8
:1000C000DB030008DB030008DB030008DB03000898
:1000D000DB030008DB030008DB030008DB03000888
:1000E000DB030008DB03000800000000DB0300085E
:1000F000DB030008DB030008DB030008DB03000868
:10010000DB030008DB030008DB030008DB03000857
:10011000DB030008DB030008DB030008DB03000847
:10012000DB030008DB030008DB030008DB03000837
:10013000DB030008DB030008DB030008DB03000827
:1001400000000000000000000000000000000000AF
:10015000DB030008DB030008DB030008DB03000807
:10016000DB030008DB030008DB030008DB030008F7
:10017000DB030008DB030008AD200008DB030008F8
:10018000DB030008DB030008358D0008DB030008F3
:10019000DB030008DB030008DB030008DB030008C7
:1001A000DB030008DB030008DB030008DB030008B7
:1001B000DB030008DB030008DB030008DB030008A7
:1001C000DB030008DB030008DB030008DB03000897
:1001D000DB030008DB030008DB030008DB03000887
:1001E000DB030008DB030008DB030008DB03000877
:1001F000DB030008DB030008DB030008DB03000867
:10020000DB030008DB030008DB030008DB03000856
:10021000DB030008D5870008FD870008DB03000822
:10022000DB030008DB030008DB030008000000001C
:10023000DB030008DB03000800000000DB0300080C
:10024000DB030008DB030008DB030008DB03000816
:10025000DB030008DB030008DB030008DB03000806
:10026000DB030008DB030008DB030008DB030008F6
:10027000DB030008DB030008DB03000800000000CC
:10028000DB030008DB030008DB03000800000000BC
:1002900000000000DB03000800F002F800F080F826
:1002A0000AA090E8000C82448344AAF10107DA45D1
:1002B00001D100F075F8AFF2090EBAE80F0013F0A3
:1002C000010F18BFFB1A43F00103184700AE0000EE
:1002D00020AE00000A444FF0000C10F8013B13F070
:1002E000070408BF10F8014B1D1108BF10F8015B8F
:1002F000641E05D010F8016B641E01F8016BF9D182
:1003000013F0080F1EBF10F8014BAD1C0C1B09D1D8
:100310006D1E58BF01F801CBFAD505E014F8016B4A
:1003200001F8016B6D1EF9D59142D6D370470000DC
:100330000023002400250026103A28BF78C1FBD8EE
:10034000520728BF30C148BF0B60704766290AF0CA
:100350006484642900F02881752900F025817829BA
:1003600000F05E81632900F0E784732900F0EC84DB
:10037000002070471FB50AF04BFC9DE8030001F018
:1003800053F800F0F7FC0400002000210AF02AFCDA
:10039000E06000F007FE1FBD10B500F06CFE10BD60
:1003A00000F0D4FE1146FFF7E5FF09F03BFC00F03A
:1003B000D9FF03B4FFF7F0FF03BC01F0C7F9000059
:1003C0000948804709480047FEE7FEE7FEE7FEE7E9
:1003D000FEE7FEE7FEE7FEE7FEE7FEE70448054925
:1003E000054A064B70470000A986000899020008DC
:1003F00010070024100D0024100900241009002407
:1004000053EA020C00F069802DE9F04B4FF0000632
:10041000002B1FBFB3FA83F503FA05F424FA05F69F
:100420005E4012BF1643B2FA82F502FA05F4C5F136
:1004300020051EBF22FA05FC44EA0C04203556EACA
:10044000044C4FEA144418BF641C4FF000084FF0EE
:100450000009904271EB030C39D3002919BFB1FA9E
:1004600081F701FA07F6B0FA80F700FA07F6C7F14C
:1004700020071EBF20FA07FC46EA0C062037B6FB11
:10048000F4FCA7EB0507103F07F01F0BCBF120068C
:100490000CFA0BFB2CFA06F644BFB3460026202FBD
:1004A000A4BF5E464FF0000B5BEA060C08BF4FF09E
:1004B000010B19EB0B09ABFB027C48EB0608C01BD8
:1004C00006FB02CC0BFB03CC71EB0C01C1E70B4626
:1004D000024641464846BDE8F08B13B54FF0000098
:1004E0004FF00001AFF30080BDE81C4070470000F2
:1004F0000FB4044910B503AA029800F029FC10BCFF
:100500005DF814FB0806002470B504468569006890
:10051000C10601D5302600E02026C00707D070BDF7
:10052000D4E9012130469047206A401C20626D1EAC
:10053000F6D570BD70B5044685690078C00707D14F
:1005400070BDD4E9012120209047206A401C206220
:100550006D1EF6D570BD70B50C460546012A05D056
:100560002878800600D5EA69002302E0012305E02F
:100570005B1C934202D2E05C0028F9D1A869E6181E
:10058000C01AA861286A184428622846FFF7BCFFF1
:1005900004E0D5E9012114F8010B9047B442F8D3E7
:1005A0002846FFF7C7FF70BD2DE9F041064600243D
:1005B00010687529314616A510D0AFF300800028C9
:1005C00002DA404213A507E031688A0701D512A577
:1005D00002E0490704D511A5012401E0AFF3008032
:1005E00000210A2206F1240709E0B0FBF2FCB0FB6F
:1005F000F2F302FB1C00303078541846491C0028E6
:10060000F3D123462A463046BDE8F04100F022B936
:10061000000000002D0000002B0000002000000062
:1006200070B504460D4621461068AFF3008021885E
:10063000090502D50F4A7A4402E00E4A7A440E3286
:10064000002104F1240305E000F00F060009965D87
:100650005E54491C0028F7D120780023000704D5F8
:10066000702D02D009B1022311322046BDE870403E
:1006700000F0F0B824A600002DE9F05F894604469A
:100680004FF0000ADFF874B1FB44C0F820A0204608
:10069000E1688847002874D0252806D0D4E90121D4
:1006A0009047206A401C2062F1E700265F46204602
:1006B000E16888472028054607DB312D05D27819E7
:1006C00010F8200C08B10643F1E7B00701D526F079
:1006D0000406C4F81CA00027C4F818A02A2D09D0CD
:1006E000284609F047FA38B304EB8708303DC8F8CC
:1006F000185019E059F8041B204604EB8702916159
:10070000E1688847012F054618D1E069002820DA02
:1007100026F020061DE0D8F8180000EB800005EB5D
:1007200040003038C8F818002046E1688847054680
:1007300009F020FA0028EED1012F0AD02E2D08D181
:100740002046E16888477F1C0546022F46F02006B8
:10075000C4DBA069002803DA404246F00106A0612C
:10076000F00701D026F010066C2D0BD0682D09D0B3
:100770004C2D39D06A2D35D0742D35D07A2D33D00B
:1007800016E038E0E1682F4620468847B842054623
:1007900009D16C2F26D04FF48060E16806432046D3
:1007A0008847054604E06C2F1AD04FF4807006434A
:1007B0000DB3A5F14100192802D8203546F4006692
:1007C0004A462946204626604E46FFF7BFFD80B1C7
:1007D00001280BD0F61D26F0070000F1080956E7A6
:1007E0004020E4E78020D8E70020D6E706F104099E
:1007F0004DE7284652E7206ABDE8F09FFAA50000C1
:100800004FF0000200B5134694469646203922BFA9
:10081000A0E80C50A0E80C50B1F12001BFF4F7AFF4
:10082000090728BFA0E80C5048BF0CC05DF804EBD6
:10083000890028BF40F8042B08BF704748BF20F844
:10084000022B11F0804F18BF00F8012B7047704742
:10085000704770472DE9F0470D4699469246044689
:1008600000F124080168880604D5E06921F0100130
:10087000216000E00120A84201DD471B00E00027C5
:10088000A1697A1902EB0900081AA0612078C00654
:1008900002D42046FFF738FE002608E0D4E9012103
:1008A0001AF806009047206A401C761C20624E45CC
:1008B000F4DB2078C0060AD52046FFF725FE06E0C7
:1008C000D4E9012130209047206A401C2062381E64
:1008D000A7F10107F4DC07E0D4E9012118F80500CD
:1008E0009047206A401C2062281EA5F10105F3DC18
:1008F0002046FFF71FFE2078000602D50220BDE843
:10090000F0870120FBE770472DE9FF4F0C461E469C
:100910004FF0FF378BB0D2E90001DDF860800A901C
:100920008A46C1F30A5505B93D46002108464FF0F5
:100930000000BAF1000F00F4400005DA00EB80007F
:100940004FF4400101EA50004FEA9059B9F1010F0C
:1009500000DDB9460A9850EA4A000ED044F610501D
:10096000A5F2FF3545432F14B8F1000F1ED0754294
:10097000291E1EDDC9F100021CE0B8F1010F4FF085
:10098000000001D0302103E0F24305E02154401C77
:10099000B042FBDB30460022002121540B99C1F804
:1009A0000880C1E900200FB0BDE8F08FBD1B6D1CB1
:1009B000DEE74A4600DA694206A800F07DFA06AB97
:1009C00093E8070003AB83E8070050460A9900F05C
:1009D00059FF8DE80700A0F500501F3800900398DC
:1009E000002D0ADD42F21F014A460844002303A9F4
:1009F0000390684601F0C2F909E0A0F500504A46AC
:100A00001F38002303A90390684601F0CCF98DE854
:100A100007000004000C03D04FF0FF30410800E055
:100A20001046B8F1000F03D00022009215461EE0D8
:100A3000751E05D400F0A2F9303262556D1EF9D54D
:100A4000B3460122084302D000227F1C04E0207834
:100A5000302801D100227F1E002A099784D01DE092
:100A6000112D07DA00F08AF9303262556D1C50EA18
:100A70000102F5D1084302D00098C8B10EE0002170
:100A8000681E05E0235C625C63542254401E491CCE
:100A90008142F7DBAB46A81B401E0990002004F8FA
:100AA0000B000B98099AC0F80880C0E9002B7AE780
:100AB00011264FF0000857E72DE9F04F884604460D
:100AC000D21D22F0070191B0D1E90001CDE90A0160
:100AD00009F01BF802460B98C00F01D02D2007E04B
:100AE0002068810701D52B2002E0202101EAC00007
:100AF000032A099001D0072A05DB03464146204618
:100B000000F09AF90BE12078800601D5E06900E059
:100B10000620B8F1650F814606D0B8F1660F18D0EF
:100B2000B8F1670F70D131E00020B9F1110F0090DA
:100B300001DB112301E009F101030AAA01A90CA8B4
:100B4000FFF7E2FEDDE90C70002609F1010583469E
:100B500047E001204B4600904FF000470AAA01A948
:100B60000CA8FFF7D1FEDDE90DB00C995D4600261B
:100B700010B909F101000D18B9EB050003D4C0F15B
:100B8000FF3609F10105A5EB09002BE0B9F1010FD2
:100B900001DA4FF001090020B9F1110F0090484629
:100BA00001DD112300E003460AAA01A90CA8FFF702
:100BB000ABFEDDE90C704D46002683462078000729
:100BC0000AD4AB4500DA5D4601A8012D04DD4119C8
:100BD00011F8011C302907D04F4502DA17F1040F34
:100BE00004DA012082460FE06D1EEEE7002F02DCE2
:100BF000ED1B3E4403E0781CA84200DD7D1CB81BC1
:100C000000F1010A4FF000472078000703D4AA45FD
:100C100001DB4FF0FF3A0021B7F1004F0DF143081F
:100C20008DF8431024D002202B23002F01DA7F42BD
:100C30002D230A21021EA0F1010000DC5FB197FB09
:100C4000F1FC97FBF1F201FB1C7C17460CF1300C18
:100C500008F801CDEEE7A8F101000370218809052D
:100C600001D5452100E06521A0F1010800F8011C33
:100C700009980FA9A1EB0807FF1D00B10120411938
:100C800001EBEA70A1693844081A401EA06120787F
:100C9000C00602D42046FFF737FC099828B1D4E9F2
:100CA00001219047206A401C20622078C00622D58E
:100CB0002046FFF729FC1EE0002E04DBB34502DDD1
:100CC00001A8805D00E03020D4E901219047206A2E
:100CD000401C2062761CAAF101005FEA000A0AD1DA
:100CE00000F048F8C0680168405CD4E901219047F1
:100CF000206A401C2062281EA5F10105DCDC07E00B
:100D0000D4E9012118F8010B9047206A401C2062A9
:100D1000381EA7F10107F3DC2046FFF70BFC032088
:100D200011B041E610B5436913B1AFF3008001E0A3
:100D3000FFF711FC012010BD127800F124010A70A8
:100D400000224A700122EDE711684FF0FF32E9E717
:100D5000074B70B50D467B4400F05BF8044628460F
:100D600000F01CF910B14FF0FF3070BD204670BD8F
:100D7000AF8E000000487047D006002430B5B0F1B7
:100D80000A024FEA900E71F100034EEA817EB0EB49
:100D90000E0061EB91014FEA101E4EEA017E10EB4E
:100DA0000E0041EB11114FEA102E4EEA016E10EBCE
:100DB0000E0041EB11214FEA104E4EEA014E10EBAE
:100DC0000E0041EB1141401841F100014FEAD00003
:100DD00040EA41704FEAD10110EB80054FEA8104EF
:100DE00044EA907444EB01046D1944EB0404521B73
:100DF000A3414FF0000348BF0A3200D530BD401C6C
:100E000041F1000130BD000001694A1C026108780F
:100E1000704700B58FB0CDE901310021059105493A
:100E20007944CDE9031011466846FFF725FC0FB061
:100E300000BD0000E5FFFFFF2DE9F0411F4604461D
:100E400003260168072A01F4006004DB08B116A537
:100E500005E016A503E008B115A500E015A521F0F1
:100E600010002060A069C01EA0610FB1401EA061EB
:100E70002046FFF749FB4FB1D4E90121384690479E
:100E8000206A401C2062C01C206206E0206AFAE74B
:100E9000D4E9012115F8010B9047761EF8D22046BF
:100EA000FFF748FBBDE8F0814E414E006E616E00D9
:100EB000494E4600696E66002DE9F04781461646A8
:100EC0008AB0354878440DC88DE80D003248784422
:100ED000801C03AC0DC884E80D0041F69B3008442B
:100EE000372190FBF1F290FBF1F5A5F1800501FBB4
:100EF00012041B3C02D56442012000E00020DFF810
:100F000098A080460027FA44AAF1BE0A0EE0E00746
:100F10000AD03246684607EB470101230AEB8101FC
:100F200000F041FF8DE8070064107F1C002CEED11B
:100F3000194F7F44AE3F19E0E80715D007EB0410C6
:100F40000DF1180A90E80E008AE80E00C068F04221
:100F500001D1981908903246012306A903A800F090
:100F600022FF03AB83E807006D10641C002DE3D162
:100F70004FF0010332466946B8F1000F03A802D0D2
:100F800000F0FCFE01E000F00EFFC9E90001C9F825
:100F900008200AB0BDE8F0874C9E0000007B00F0FE
:100FA0008000704710B542485421FFF729FC4148A2
:100FB0005421FFF725FC40485421FFF721FC3F490D
:100FC0003B483C4A3F4B08603D490A603A4919603A
:100FD000531C0365481C1065012008653B48344AD2
:100FE00039A1784400F022F920B9384878440A3809
:100FF00000F0C1F937482F4A35A1784400F016F9BE
:1010000020B9344878440A3800F0B5F932482A4A01
:101010002FA1784400F00AF920B92F4878440A3803
:1010200000F0A9F940232248DC000021224600F00C
:10103000D9F820B125487844543800F09CF91D486F
:1010400022464023002100F0CDF820B12148784409
:10105000543800F090F9184822461023002100F07F
:10106000C1F8002806D01C487844BDE81040563826
:1010700000F081B910BD104870B5006D20F001047A
:101080000B4800F049F90B4800F046F90A4800F017
:1010900043F909E0206D20F00105204600F03CF9FD
:1010A000204600F078F82C46002CF3D170BD0000EB
:1010B000B4050024080600245C060024A8010024CE
:1010C000AC010024B001002472000000469D000025
:1010D00077000000329D00001E9D00000EB5CDE996
:1010E000000100F013FB029069460120ABBE0EBD6B
:1010F00008B5694600900220ABBE08BD1FB58DE85B
:10110000070069460520ABBE04B010BD1FB58DE8D1
:101110000F0069460620ABBEF6E708B569460090A9
:101120000920ABBE08BD1CB5CDE9000169460A2007
:10113000ABBE1CBD704708B5694600900C20ABBE25
:1011400008BD000000487047B00600247546FFF750
:10115000F9FFAE4605006946534620F00700854674
:1011600018B020B5FFF73AF9BDE820404FF000066F
:101170004FF000074FF000084FF0000B21F007017F
:10118000AC46ACE8C009ACE8C009ACE8C009ACE8C2
:10119000C0098D46704770B50446051F00F028F958
:1011A0000068002C14BF446870BD002C18BFAC420E
:1011B0003CBF20466468F8D301680A18AA4218BFE9
:1011C000456003D12A680546114401602868411929
:1011D000A1421CBF6C6070BD6168696021680844F1
:1011E000286070BD70B5C468A50713D0650211D41E
:1011F000B2F5807F09D0B2F5007F06D0B2F5806FDE
:1012000008D1012300F1240106E05D1E6FF07F4646
:10121000B54201D3012070BD0161C361416024F476
:1012200070611143C160002070BD00002DE9F041E4
:101230000C4607461646104600F06EF82078611CF2
:1012400061280AD0722802D077283CD102E001251B
:10125000002405E00225042402E0082448F20205E7
:1012600011F8010B2B2806D0622809D011F8010CC7
:1012700074280AD00BE045F0030544F00204EFE7C0
:1012800045F0040544F00104EAE744F01004384650
:101290002146FFF723FF411C15D000213161716009
:1012A0004FF40071F560F1617061200704D530469C
:1012B0000222002100F016F9306D40F00100306587
:1012C0003046BDE8F0810020FBE72DE9F0410D46F6
:1012D0000646104C206DC10704D0410804D020F010
:1012E0000104F7E722460EE0542000F0CCF8070096
:1012F0000ED0206D47F00101084354212065384687
:10130000FFF77EFA3A4629463046BDE8F0418DE7C0
:101310000020D6E7B40500242DE9F04704464FF03D
:1013200000094FF0FF37C568D4E90486A80707D045
:10133000204600F087F93046FFF7DAFE002802DA8F
:101340003846BDE8F087280502D54046FFF723FF61
:101350004C212046FFF754FA206D20F00100206553
:101360004846EEE710B50446AFF300802046BDE8DE
:101370001040FFF71EB810B500F0AEF9BDE8104000
:1013800000F0A4B94FF0013C50F8042B51F8043B95
:101390009A4215D1A2EB0C03934313EACC130BD161
:1013A00050F8042B51F8043B9A4209D1A2EB0C03EC
:1013B000934313EACC13E7D04FF00000704700BF0F
:1013C000D01A01BAB1FA81F101F0180122FA01F044
:1013D000CB40C1F12001DBB2C0B2C01A2CFA01F33C
:1013E000D11A914311EAC311E6D17047704700004A
:1013F00000487047B8060024704770477047704730
:1014000038B504460A4600206946AFF3008000283C
:1014100008BF38BD02460099204600F0A4F901201B
:1014200038BD012000F0F3B9F8B5AFF300800546F0
:1014300000200C46102000BF0646A819A0420DD976
:10144000324669460020AFF30080070008BF00F075
:10145000DEF90098A04218BF0546C419FFF7C8FF7F
:1014600005600746F01D20F007004619284600F0E9
:1014700073F9B44208BFF8BDA21B31463868BDE815
:10148000F84000F070B970B50646FFF7B1FF056887
:1014900006F10B0020F00704B4429CBF002070BD91
:1014A0002B466A68BAB11068A04210D304F1080153
:1014B00088423CBF5068586007D35168101941609A
:1014C0001168091B016058601460101D70BD13463F
:1014D0005268002AE7D121462846FFF791FF0028ED
:1014E000DED170BD2DE9F041044616460D46476930
:1014F000007B80072ED03846FFF70FFE50BB3EB36F
:10150000012E02D0022E25D104E0204600F045F93C
:1015100005441DE03846FFF70EFEE168002841F063
:101520001001E16005DA204600F058F80120BDE81E
:10153000F081C9030BD56268E16A914200D8114677
:10154000A26911442269891A814200DD08460544D6
:10155000002D01DA0220EAE7E16A6068E268814270
:1015600006D29103E06203D522F4003141F010026B
:10157000A6690027AE4213DCE16A814201D90B461D
:1015800000E0034603EB060C2369ACEB030CAC450F
:1015900006DD814201D98C4600E084469C4505D198
:1015A000A760276042F02000A5620DE0AD1BE66950
:1015B000AE1B8142A66000D90846C01A281A2060D6
:1015C0005819606022F0200003490840E0600020C4
:1015D00084F84870ABE70000BFCFD7FFC16821F4A3
:1015E000001141F08001C1600021816001607047FD
:1015F0002DE9F047814614460E464FF0FF38324839
:10160000D5685769054209D03846A169FFF78BFDB7
:10161000002811DB2C48C0430540E5602B463246CC
:1016200049463846FFF76AFDA16920F00042B21A28
:1016300011440028A16103D02046FFF7CFFF4046A8
:10164000BDE8F08770B504460569C06A61688842E4
:1016500000D80846E16821F42011E160C90312D5E1
:10166000A84208D02246411B2846FFF7C1FF10B10F
:101670004FF0FF3070BD0020E562C4E90150E06822
:1016800020F48030E060002070BD10B50446C068D2
:1016900020F02000E060A16AA06988420DD02046B9
:1016A000FFF7D0FFE06820F4405040F01000E06009
:1016B000A06AA0612069E062606044F24001E068D5
:1016C0008843E06010BD000010000200002801D037
:1016D00000F03CB87047000010B5014602A000F0D1
:1016E0007DF8012010BD0000534947525452454433
:1016F0003A2052656469726563743A2063616E27AB
:1017000074206F70656E3A200000000010B5431C15
:1017100002E010F8011B71B18107FAD14FF00132DC
:1017200002C88C1A8C4314EAC211F9D0C01A0A06F6
:1017300003D0C01E10BDC01A10BD0A0401D0801E07
:1017400010BD0902FCD0401E10BD00000149182048
:10175000ABBEFEE72600020000210160C0E90110D7
:10176000704710207047034640688C46002818BF19
:1017700088423CBF03464068F8D318681844884242
:1017800007D00CF1030020F00700001D411A521A87
:101790000146081D0A60FFF7FEBC10B50146C2688D
:1017A000900703D0900607D5886A0AE000F03EF85B
:1017B00001210160881E10BD8B69486818440B69BF
:1017C000C01A91F848301BB191F84910401A10BD69
:1017D0001103FCD50028FADD401E10BD70B505468A
:1017E0000C460A2000E06D1C00F018F835B128788E
:1017F0000028F8D102E0641C00F010F814B1207841
:101800000028F8D1BDE870400A2000F007B810B5F4
:1018100000F010F8BDE81040FFF758BF08B5694662
:101820008DF800000320ABBE08BD000000487047E3
:10183000B006002410B5012805D0002103A0FFF751
:10184000CDFF012010BD09A1F8E700005349475220
:10185000544D454D3A204F7574206F662068656180
:1018600070206D656D6F7279000000003A20486548
:101870006170206D656D6F727920636F7272757023
:10188000746564005FEA400C08BF91F0000F4FEAF6
:101890008C234FEAC12243EA51514FEA1C5018BF32
:1018A00000F5F0404FEA300018BF41F000415FEA18
:1018B0006C5C00F02980BCF1FF3F08BF40F0804025
:1018C0007047130C06BF12044FF0100C4FF0000CC1
:1018D000130E04BF12020CF1080C130F04BF120107
:1018E0000CF1040C930F04BF92000CF1020CD30F07
:1018F00004BF52000CF1010C11464FF00002A0F1A0
:101900001F00A0EB0C00704711F0004F08BF70479C
:1019100031F000413FF4D5AF0B0C06BF09044FF086
:10192000100C4FF0000C0B0E04BF09020CF1080C58
:101930000B0F04BF09010CF1040C8B0F04BF8900CD
:101940000CF1020CCB0F04BF49000CF1010CCCF1DF
:101950002003A0EB0C0022FA03F302FA0CF241EA96
:10196000030100F10100704720F07F4C80EA030082
:1019700023F07F47ACEB070303F57C5300F00040F6
:1019800003F1FF032DE980494FEA154B09B44FEAF3
:10199000144325EA0B4E24EA03480FF2042606EB13
:1019A000132749083E785FEA320203FB0667C7F552
:1019B000000707FB06F64FEA54374FEAD64606F112
:1019C000020607FB066CCCF1005C4FEA1C472CEAD0
:1019D000074C07FB06F40CFB06F504EB15464FEA33
:1019E000961634BF00204FF000404FEAD13706FB77
:1019F00007FC4FEA1C4C0CFB0BF7D21B03FB0CF74C
:101A000061EB07010CFB0EF7B0EB074072EB1742DE
:101A10000CFB08F734BFA2EB0742B2EB074261EBC5
:101A200017414FEA0C444FEA910706FB07FC4FEAC7
:101A30001C4C0CFB0BF7B0EBC74072EB573203FBAF
:101A40000CF734BFA2EBC742B2EBC74261EB573190
:101A50000CFB0EF7B0EBC70072EB57720CFB08F7EC
:101A600034BFA2EBC702B2EBC70261EB5771039F11
:101A70004FEA816141EA921104EBCC044FEAD1377D
:101A80004FEA826206FB07FC42EA90124FEA80604E
:101A90004FEA1C4C0CFB0BF7D21B03FB0CF761EB62
:101AA00007010CFB0EF7B0EB074072EB17420CFB83
:101AB00008F734BFA2EB0742B2EB074261EB1741D4
:101AC0004FEA8C554FEA910704EB9C2406FB07FC78
:101AD0004FEA1C4C0CFB0BF7B0EBC74072EB5732D4
:101AE00003FB0CF734BFA2EBC742B2EBC74261EB7A
:101AF00057310CFB0EF7B0EBC70072EB57720CFBC3
:101B000008F734BFA2EBC702B2EBC70261EB577113
:101B100015EB4C254FEA816141EA92114FEA82624E
:101B20004FEAD13742EA901206FB07FC44F1000469
:101B30004FEA80604FEA1C4C0CFB0BF7D21B03FBF7
:101B40000CF761EB07010CFB0EF7B0EB074072EBF3
:101B500017420CFB08F734BFA2EB0742B2EB074277
:101B600061EB174115EB1C154FEA813141EA9241B7
:101B70004FEA823242EA90424FEA80304FEA0C76D6
:101B800044F1000448EA03434EEA0B484FF0000ECC
:101B9000B2EB080C71EB030724BF624639464EEBEB
:101BA0000E0E4FF0000B0018524149414BEB0B0B4E
:101BB000B2EB080C71EB03077BF1000B24BF62460C
:101BC00039464EEB0E0E4FF0000B001852414941C2
:101BD0004BEB0B0BB2EB080C71EB03077BF1000B2B
:101BE00024BF624639464EEB0E0E51EA020718BF7B
:101BF00046F0010616EB0E7655F1000254F1000195
:101C000003D5BDE88901BDE80088BDE88901BDE8CC
:101C10000048B619524141EB0101A3F1010370479D
:101C200080807F7E7D7C7B7A797877767675747319
:101C3000727171706F6E6E6D6C6C6B6A6A696868D8
:101C4000676666656464636362616160605F5F5E6E
:101C50005E5D5D5C5C5B5B5A5A59595858575756E4
:101C60005655555554545353525252515150505049
:101C70004F4F4F4E4E4D4D4D4C4C4C4B4B4B4A4A9B
:101C80004A494949484848474747474646464545DF
:101C90004544444444434343434242424241414118
:101CA000002B9C4630D477002BD01CB54FEA370769
:101CB00003B44FF010004FF01001BAF1000F06D03E
:101CC000BCF1000FDCBF40F0080040F008014FF00D
:101CD00000000FBCBDE810400BF1010BBBF1010F80
:101CE00008BF5FEA170722BF12F1010211F10101DB
:101CF0004FF0004143F1000300F0004043EA0000D0
:101D00007047F9D35708D0E746EA064613F1400F6B
:101D10004FEA16461FDD13F1200FDFBF16430A46B8
:101D2000002120335B42BED0C3F1200746EA0646BD
:101D300002FA07F74FEA164646EA0706C3F12007FC
:101D400022FA03F201FA07F721FA03F14FF0000338
:101D500042EA0702A7E746EA020646EA06464FEAD3
:101D6000164646EA0106BCBF46EA0646360C4FF068
:101D700000034FF000024FF0000194E72DE9804C82
:101D80009A46934670B491E8380007C831EA400C8F
:101D900048BF34EA430C03D5FFF7E6FDFFF780FFA9
:101DA000F0BCBDE8008C2DE9804C9A46934670B497
:101DB00091E8380007C810F0804F08BF13F0804F3B
:101DC00003D100F005F8FFF76BFFF0BCBDE8008C15
:101DD00020F07F4780EA030023F07F4C07EB0C03E1
:101DE000A3F57C5300F00040A3F1FE0392F0000F36
:101DF00000F0B38095F0000F00F077802DE90149E5
:101E00004FEA11404FEA144621EA004800FB06FC65
:101E100024EA064708FB06F607FB08F800FB07F76D
:101E200018EB06484CEB164C4FEA124B18EB0748E0
:101E30004FEA15464CEB174022EA0B4E0BFB06FC13
:101E400025EA06470EFB06F607FB0EFE0BFB07F71F
:101E50001EEB064E4CEB164C4FF000061EEB074EE9
:101E60004CEB174B18EB0B0840F1000018EB0E0B76
:101E700058EB000840F100008F1A4FF000013CBF02
:101E8000C943661B14BFB5EB040C00213CBFC9431A
:101E9000F61B4FEA17444EEA8E0E27EA04454FEA36
:101EA0001C4704FB07622CEA074C05FB07F70CFBF9
:101EB00005F604FB0CFC16EB074642EB174216EB4B
:101EC0000C4642EB1C421BEB060658EB020241415A
:101ED00046EA9E0601D5BDE80189B619524141EB9B
:101EE0000101A3F10103BDE801894FEA14454FEA5E
:101EF000114724EA054621EA074C05FB07F406FBD7
:101F000007F70CFB06F105FB0CFC11EB074144EB5A
:101F100017444FEA124711EB0C4144EB1C4422EAF0
:101F2000074C05FB07F206FB07F70CFB06F605FB63
:101F30000CFC16EB074642EB174216EB0C4642EB45
:101F40001C456A1854F1000148BF7047B619524148
:101F500041EB0101A3F10103704795F0000F37D069
:101F60004FEA11424FEA144721EA024624EA074C9D
:101F700002FB07F106FB07F70CFB06F402FB0CFC67
:101F800014EB074441EB17414FEA154714EB0C449F
:101F900041EB1C4125EA074C02FB07F506FB07F75E
:101FA0000CFB06F602FB0CFC16EB074645EB17454F
:101FB00016EB0C4645EB1C42121951F1000148BFCB
:101FC0007047B619524141EB0101A3F1010370477B
:101FD0004FEA14454FEA114724EA054621EA074C27
:101FE00005FB07F106FB07F70CFB06F24FF00006B6
:101FF00005FB0CFC12EB074241EB174112EB0C42C4
:1020000051EB1C4148BF7047921841EB0101A3F10D
:102010000103704700BFFEE7034600EE103AB8EE3A
:10202000C00ADFED0E0A80EE201A0D4880ED071A77
:1020300000EE101AB8EEC00ADFED080A80EE201A92
:1020400080ED081A00EE102AB8EEC00ADFED030A90
:1020500080EE201A80ED091A0020704700007A44B3
:1020600084050024014600EE101AB8EEC00ADFED28
:10207000040A80EE201A034880ED001A0020704701
:1020800000007A448405002470B50546AC6BA06C52
:10209000406D022806D0012084F83500E06C40F045
:1020A0004000E064204600F00DFB70BD10B5024812
:1020B00000F00AFB10BD0000B401002410B5024876
:1020C00001F0B0F810BD0000040200240146374AB8
:1020D0000868904249D0354A18320868904244D086
:1020E000324A3032086890423FD0304A483208685D
:1020F00090423AD02D4A60320868904235D02B4A3F
:1021000078320868904230D0284A9032086890426D
:102110002BD0264AA8320868904226D0244A086864
:10212000904222D0224A1832086890421DD0204A9C
:1021300030320868904218D01D4A483208689042F0
:1021400013D01B4A6032086890420ED0184A783289
:102150000868904209D0164A90320868904204D02C
:10216000134AA8320868904201D1012000E0002003
:10217000B0B10A78103A1823B2FBF3F000F007026E
:102180000C4B9A5CCA65032805D90A686FF30902EB
:10219000121D8A6503E00A686FF309028A6503E08D
:1021A000086820F0FF008865886D704710000240C5
:1021B000100402401EAC000810B502682B4C0368E6
:1021C000A34222D0294C14340368A3421DD0274CCB
:1021D00028340368A34218D0244C3C340368A3423B
:1021E00013D0224C50340368A3420ED01F4C6434E9
:1021F0000368A34209D01D4C78340368A34204D07D
:102200001A4C8C340368A34201D1012300E000235F
:102210008BB10378083B1424B3FBF4F1144B03EBAC
:1022200081030366124B8033436601F01F040123D0
:10223000A340836618E00378103B1824B3FBF4F145
:102240000C4B9A4204D80B4BA83B9A4200D308315E
:10225000094B03EB81030366074B8033436601F0B0
:102260001F040123A340836610BD000008540258D8
:1022700000580258B8040240000802400179A9B38E
:10228000082940D8204B02689A4222D01E4B1433B2
:1022900002689A421DD01C4B283302689A4218D01B
:1022A000194B3C3302689A4213D0174B50330268E3
:1022B0009A420ED0144B643302689A4209D0124BF2
:1022C000783302689A4204D00F4B8C3302689A42EA
:1022D00001D1012200E000224AB14A1E0B4B03EB60
:1022E0008202C266094A4032026708E00BE04A1ED9
:1022F000074B03EB8202C266054A403202674A1E60
:10230000012393404367704708540258005902580C
:1023100000090240014600208A69D2B98A6A32B1B6
:10232000012A0DD0022A03D0032A10D10EE000BFEB
:10233000CA6A02F08072B2F1807F00D1012007E00A
:10234000CA6AB2F1C07F00D1012001E000E000BF05
:1023500036E08A69B2F5005F1BD18A6A32B1012A80
:1023600007D0022A03D0032A11D10AE000BF0120BE
:102370000EE0CA6A02F08072B2F1807F00D10120C3
:1023800006E0CA6AB2F1C07F00D1012000E000BFC0
:1023900016E08A6A32B1012A05D0022A04D0032A43
:1023A0000CD103E000BF00BF012008E0CA6A02F0C0
:1023B0008072B2F1807F00D1012000E000BF00BF39
:1023C0007047704710B52DED048B04463648006801
:1023D000642805DA34480068401C334908605FE02F
:1023E0000020314908609FED310AB0EE408A94ED3B
:1023F000090AC0EE080A94ED070A94ED081A01EEE6
:10240000080A30EE800AF0EE408A94ED090AF0EEF8
:10241000000A60EE200A80EE880AD4ED070A30EE4A
:10242000200AB0EE409A94ED090AC0EE080AF0EED8
:10243000609A94ED000A1E48D0ED000A30EE600A62
:1024400084ED040A94ED040A20EE280AD4ED050A6E
:1024500009EE600AD4ED060A09EEA00ABDEEC00A34
:1024600084ED0A0AD4E90A100844E062E06AB0F593
:102470007A7F02DD4FF47A70E062E06A10F57A7FCD
:1024800001DA0C48E0620020E16A07F07BFB94ED82
:10249000050A84ED060A94ED040A84ED050A00BFDE
:1024A0000020BDEC048B10BDA40100240AD7233CFE
:1024B0009801002418FCFFFF72B600BFFEE7024639
:1024C0000868B0B9D1E901031843CB6818430B6918
:1024D00018434B6918438B691843CB6918430B6A3F
:1024E00018434B6A184313686FF30E0318431060C8
:1024F00019E0D1E9070318434B6A1843136823F422
:10250000F84318431060D1E901031843CB6818431E
:102510000B6918434B6918438B69184353686FF371
:102520000E0318435060002070470246506943F67E
:10253000FE73984340EA410050610020704710B597
:102540000346D1E9000420438C68641E40EA44102D
:10255000CC6840EA44201C696FF3150420431861DD
:10256000002010BD30B50346FAB90868401E4C681B
:10257000641E40EA04148868401E44EA0024C868C7
:10258000401E44EA0034088A401E44EA0044888A17
:10259000401E44EA0054087E401E44EA00609C68E5
:1025A00004F070442043986022E0C868401E040391
:1025B000888A401E44EA00509C680E4D2C402043FF
:1025C00098600868401E4C68641E40EA04148868DD
:1025D000401E44EA0024088A401E44EA0044087E63
:1025E000401E44EA0060DC6804F070442043D86078
:1025F000002030BDFF0F0FFF10B50446012C09D19C
:10260000054890ED000AB7EEC00A53EC102B03A06A
:10261000FDF76EFF002010BD980100240D0A4D311A
:102620002053504545443A25660D0A001B48006872
:10263000B0F57A7F05DA19480068401C1749086030
:102640002AE000201549086015480068406A1549CD
:1026500008600846006814490968401A1349086070
:102660001048006810490860104890ED000AB8EE64
:10267000C00AB7EEC00AB2EE041B20EE010B9FEDBC
:102680000C2B80EE021B9FED0C0B81EE002BB7EEA6
:10269000C20B0B4880ED000A00207047A001002407
:1026A000FC02002494010024900100249C010024D9
:1026B0000000000000005040000000000000494001
:1026C000980100247047704770B50446206805697A
:1026D00005F0040004280ED121684861E06C40F048
:1026E0000200E064042084F835002348A16C0865EA
:1026F000A06C00F0CBFB05F0020002280ED121688F
:102700004861E06C40F00100E064042084F835008A
:102710001948A16C0865A06C00F0B8FB05F010002A
:10272000102804D121684861204600F077F805F0B0
:102730000800082804D121684861204600F036F9D5
:1027400005F00100B8B12068006800F0020002281E
:1027500005D12068C06820F01E002168C86020688C
:10276000C06820F001002168C8600120216848612C
:102770002046FFF7A8FF70BD8920000810B5044669
:102780000CB9012010BD94F8350010B9204600F0B6
:1027900047F8022084F83500A06908B10021616281
:1027A000206800681C490840216808606169606809
:1027B0000843E168084321690843A1680843A16907
:1027C0000843216A0843616A0843A16A0843E16A31
:1027D0000843216B084321680968084321680860A1
:1027E000606810280BD1217F607F41EA0021A07F23
:1027F00041EA0041E07F41EA006021688861206889
:10280000C06840F01E002168C8600020E06401201C
:1028100084F835000020B5E707F0E0FF70470000BE
:1028200010B586B00446142101A8FDF7E9FF574909
:10283000206888427ED100BF5548006840F0010002
:10284000534908600846006800F00100009000BF8E
:1028500000BF00BF081D006840F00800091D0860A7
:102860000846006800F00800009000BF00BF00BFED
:102870000846006840F0040008600846006800F060
:102880000400009000BF00BF00BF0846006840F091
:10289000020008600846006800F00200009000BFD7
:1028A00000BF00BF0846006840F00100086008460D
:1028B000006800F00100009000BF00BF08200190F8
:1028C000022002900020039004900D20059001A9A1
:1028D000304801F06FFD4FF43C60019002200290FF
:1028E0000020039004900D20059001A92A4801F0D2
:1028F00061FD4FF46070019002200290002003906F
:1029000004900D20059001A9244801F053FD5020AA
:102910000190022002900020039004900D20059069
:1029200001A91F4801F046FD1E481F4908604B20C1
:10293000486000E027E000211B488160C1604FF43F
:102940008061016189004161890081618911C161F2
:102950000021016204214162012181620021C162E2
:10296000016301F0DBF908B1FFF7A6FD00BF0E48D7
:10297000A064846300BF002211464E2001F0CCFE0B
:102980004E2001F0B5FE06B010BD00000000024868
:10299000DC440258000C0258000802580004025897
:1029A000000002581000024004020024704700009A
:1029B0002DE9F041044601F017FE804614B90120CC
:1029C000BDE8F08194F83500022808D080206065C9
:1029D00000BF002084F8340000BF0120F0E7FE496A
:1029E0002068884249D0FC4918312068884244D088
:1029F000F9493031206888423FD0F7494831206892
:102A000088423AD0F44960312068884235D0F24992
:102A100078312068884230D0EF4990312068884270
:102A20002BD0ED49A8312068884226D0EB49206898
:102A3000884222D0E9491831206888421DD0E749F0
:102A400030312068884218D0E449483120688842F3
:102A500013D0E2496031206888420ED0DF497831D6
:102A60002068884209D0DD4990312068884204D02E
:102A7000DA49A8312068884201D1012000E0002015
:102A800068B12068006820F01E0021680860206896
:102A9000406920F0800021684861256806E02068D0
:102AA000006820F00E00216808602568CA49206887
:102AB000884270D0C8491831206888426BD0C64916
:102AC00030312068884266D0C34948312068884246
:102AD00061D0C1496031206888425CD0BE497831FC
:102AE0002068884257D0BC4990312068884252D033
:102AF000B949A831206888424DD0B8492068884239
:102B000049D0B64918312068884244D0B3493031A1
:102B1000206888423FD0B1494831206888423AD085
:102B2000AE4960312068884235D0AC4978312068A0
:102B3000884230D0A9499031206888422BD0A749DB
:102B4000A8312068884226D0A5492068884222D032
:102B5000A3491431206888421DD0A149283120683A
:102B6000884218D09E493C312068884213D09C4945
:102B70005031206888420ED09949643120688842DB
:102B800009D0974978312068884204D094498C3123
:102B90002068884201D1012000E0002028B1206E89
:102BA000006820F48070216E08608B49206888429C
:102BB00049D0894918312068884244D0864930314B
:102BC000206888423FD084494831206888423AD002
:102BD000814960312068884235D07F49783120684A
:102BE000884230D07C499031206888422BD07A4985
:102BF000A8312068884226D078492068884222D0AF
:102C000076491831206888421DD0744930312068D7
:102C1000884218D0714948312068884213D06F49E2
:102C20006031206888420ED06C4978312068884233
:102C300009D06A4990312068884204D06749A83198
:102C40002068884206D12068006820F001002168D1
:102C5000086005E02068006820F001002168086035
:102C600011E001F0C1FCA0EB080005280BD92020E1
:102C7000606500BF002084F8340000BF032084F8A2
:102C8000350001209CE6286800F001000028E8D10A
:102C900051492068884249D04F49183120688842FC
:102CA00044D04D493031206888423FD04A494831AC
:102CB000206888423AD0484960312068884235D03F
:102CC000454978312068884230D0434990312068A6
:102CD00088422BD04049A8312068884226D03F49FD
:102CE0002068884222D03D491831206888421DD092
:102CF0003A4930312068884218D038494831206834
:102D0000884213D035496031206888420ED033495B
:102D100078312068884209D0304990312068884253
:102D200004D02E49A8312068884201D1012000E05A
:102D3000002040B1A66D94F85C0000F01F013F2018
:102D40008840B06007E0A76D94F85C0000F01F01B8
:102D500001208840786020492068884276D01E494A
:102D600018312068884271D01B4930312068884270
:102D70006CD0194948312068884267D016496031C3
:102D80002068884262D014497831206888425DD03A
:102D9000114990312068884258D00F49A8312068E5
:102DA000884253D00D49206888424FD00B491831D2
:102DB000206888424AD0094930312068884245D08D
:102DC000064948312068884240D004496031206873
:102DD00088423BD0014905E0100002401004024047
:102DE000085402587831206888422FD0254920683D
:102DF00088422BD0234918312068884226D02249A6
:102E00002068884222D020491431206888421DD091
:102E10001D4928312068884218D01B493C31206860
:102E2000884213D018495031206888420ED0164984
:102E300064312068884209D013497831206888427B
:102E400004D011498C312068884201D1012000E072
:102E5000002068B1D4E919104860E06E40B1E06E1E
:102E6000006820F48070E16E0860D4E91C104860AE
:102E700000BF002084F8340000BF012084F8350032
:102E800000209DE5A00402400854025870B5044695
:102E90000CB9012070BD94F83500022803D08020C1
:102EA00060650120F6E7DC492068884249D0DA49AC
:102EB00018312068884244D0D74930312068884290
:102EC0003FD0D5494831206888423AD0D249603154
:102ED0002068884235D0D04978312068884230D087
:102EE000CD499031206888422BD0CB49A831206849
:102EF000884226D0C9492068884222D0C749183163
:102F0000206888421DD0C54930312068884218D0D9
:102F1000C24948312068884213D0C04960312068D6
:102F200088420ED0BD4978312068884209D0BB491B
:102F300090312068884204D0B849A831206888427E
:102F400001D1012000E00020F0B3042084F8350016
:102F5000B149206888424BD0AF4918312068884277
:102F600046D0AD4930312068884241D0AA49483125
:102F7000206888423CD0A84960312068884237D018
:102F8000A54978312068884232D0A3499031206821
:102F900088422DD0A049A8312068884228D09F4976
:102FA0002068884224D09D491831206888421FD06B
:102FB0009A493031206888421AD0984948312068AF
:102FC000884215D0954900E020E0603120688842B1
:102FD0000ED0924978312068884209D08F499031CB
:102FE0002068884204D08D49A8312068884206D1E3
:102FF0002068006820F001002168086009E120686D
:10300000006820F001002168086002E12068006883
:1030100020F00E00216808607F492068884249D06E
:103020007D4918312068884244D07B49303120687E
:1030300088423FD078494831206888423AD0764962
:1030400060312068884235D07349783120688842E1
:1030500030D071499031206888422BD06E49A83118
:103060002068884226D06D492068884222D06B496A
:103070001831206888421DD0684930312068884264
:1030800018D0664948312068884213D063496031BE
:10309000206888420ED0614978312068884209D082
:1030A0005E4990312068884204D05C49A83120688C
:1030B000884206D12068006820F00100216808607D
:1030C00005E02068006820F001002168086052498E
:1030D0002068884270D050491831206888426BD0EF
:1030E0004D4930312068884266D04B4948312068CC
:1030F000884261D048496031206888425CD04649A6
:1031000078312068884257D04349903120688842FE
:1031100052D04149A831206888424DD03F492068AB
:10312000884249D03D4918312068884244D03B4903
:103130003031206888423FD0384948312068884281
:103140003AD0364960312068884235D033497831E9
:103150002068884230D031499031206888422BD095
:103160002E49A8312068884226D02D4920688842FF
:1031700022D02B491431206888421DD0284928319B
:103180002068884218D026493C312068884213D0F4
:1031900023495031206888420ED02149643120688B
:1031A000884209D01E4978312068884204D01C49E1
:1031B0008C312068884201D1012000E00020D8B184
:1031C000206E006820F48070216E0860A56D94F870
:1031D0005C0000F01F01012088406860D4E91910EC
:1031E0004860E06E40B1E06E006820F48070E16EEF
:1031F0000860D4E91C10486000BF002084F8340047
:1032000000BF012084F83500206D10B12046216DEB
:10321000884700203EE600001000024010040240F3
:10322000085402582DE9F84F044600200090FE484B
:1032300000684FF41651B0FBF1FAA66DD4F858802F
:103240003768D8F80090F9492068884249D0F74992
:1032500018312068884244D0F449303120688842CF
:103260003FD0F2494831206888423AD0EF49603176
:103270002068884235D0ED4978312068884230D0C6
:10328000EA499031206888422BD0E849A83120686B
:10329000884226D0E6492068884222D0E449183185
:1032A000206888421DD0E24930312068884218D019
:1032B000DF4948312068884213D0DD4960312068F9
:1032C00088420ED0DA4978312068884209D0D8493E
:1032D00090312068884204D0D549A83120688842BE
:1032E00001D1012000E0002000287DD094F85C008E
:1032F00000F01F01082088403840002868D0CB49E2
:103300002068884249D0C94918312068884244D091
:10331000C6493031206888423FD0C44948312068CE
:1033200088423AD0C14960312068884235D0BF49CF
:1033300078312068884230D0BC499031206888427A
:103340002BD0BA49A8312068884226D0B8492068D5
:10335000884222D0B6491831206888421DD0B4492D
:1033600030312068884218D0B149483120688842FD
:1033700013D0AF496031206888420ED0AC49783113
:103380002068884209D0AA4990312068884204D038
:10339000A749A8312068884204D12068006800F05D
:1033A000040003E02068006800F0080080B1206895
:1033B000006820F004002168086094F85C0000F0C8
:1033C0001F0108208840B060606D40F0010060651A
:1033D00094F85C0000F01F01012088403840E8B3F9
:1033E00092492068884200E0B8E24BD08F491831FA
:1033F0002068884246D08D4930312068884241D0CB
:103400008A494831206888423CD088496031206828
:10341000884237D0854978312068884232D0834944
:103420009031206888422DD08049A8312068884298
:1034300028D07F492068884224D07D4918312068EF
:1034400088421FD07A493031206888421AD07849A2
:1034500048312068884215D0754900E026E0603187
:10346000206888420ED0724978312068884209D09D
:103470006F4990312068884204D06D49A831206896
:10348000884204D12068406900F0800002E0206892
:103490000068002050B194F85C0000F01F0101208A
:1034A0008840B060606D40F00200606594F85C0098
:1034B00000F01F01042088403840E8B35B492068D1
:1034C00088424BD0594918312068884246D0574924
:1034D00030312068884241D05449483120688842C0
:1034E0003CD0524960312068884237D04F4978310A
:1034F0002068884232D04D499031206888422DD0D2
:103500004A49A8312068884228D049492068884221
:1035100024D047491831206888421FD044493031AF
:10352000206888421AD0424948312068884215D024
:103530003F496031206800E024E088420ED03C49D9
:1035400078312068884209D0394990312068884212
:1035500004D03749A8312068884204D12068006827
:1035600000F0020002E020680068002050B194F8EA
:103570005C0000F01F0104208840B060606D40F0E6
:103580000400606594F85C0000F01F011020884082
:103590003840E8B325492068884251D02349183182
:1035A000206888424CD0214930312068884247D079
:1035B0001E4948312068884242D01C496031206849
:1035C00088423DD0194978312068884238D017495F
:1035D00090312068884233D01449A831206888424D
:1035E0002ED01349206888422AD01149183120680A
:1035F000884225D00E4930312068884220D00C49BD
:103600004831206888421BD009496031206800E0B9
:103610004DE0884214D006497831206888420FD0A6
:1036200003499031206805E0180000241000024092
:1036300010040240884203D0FE492068884204D129
:103640002068006800F0080003E02068006800F0CF
:10365000040060B394F85C0000F01F011020884063
:10366000B0602068006800F4802080B120680068A5
:1036700000F4002028B9206CC8B12046216C88478E
:1036800015E0A06C98B12046A16C88470FE0206837
:10369000006800F4807028B92068006820F00800F5
:1036A00021680860206C10B12046216C884794F88E
:1036B0005C0000F01F0120208840384000287DD0A9
:1036C000DD492068884249D0DB49183120688842AA
:1036D00044D0D9493031206888423FD0D64948315A
:1036E000206888423AD0D44960312068884235D079
:1036F000D14978312068884230D0CF499031206854
:1037000088422BD0CC49A8312068884226D0C949AC
:10371000A8392068884221D0C6499039206888425B
:103720001CD0C44978392068884217D0C149603913
:103730002068884212D0BF494839206888420DD09D
:10374000BC4930392068884208D0BA491839206805
:10375000884203D0B7492068884204D120680068B5
:1037600000F0100003E02068006800F0020028B3B9
:1037700094F85C0000F01F0120208840B06094F8AD
:10378000350004282DD12068006820F0160021683B
:1037900008602068406920F0800021684861206C42
:1037A00008B9A06C28B12068006820F008002168E2
:1037B000086094F85C0000F01F0100E03FE03F204B
:1037C0008840B06000BF002084F8340000BF0120B2
:1037D00084F83500206D10B12046216D8847BDE882
:1037E000F88F2068006800F4802080B120680068AD
:1037F00000F4002028B9606C08B32046616C88474B
:103800001DE0E06BD8B12046E16B884717E02068E7
:10381000006800F4807068B92068006820F010002B
:103820002168086000BF002084F8340000BF012038
:1038300084F83500E06B10B12046E16B8847606D7D
:1038400000287DD0606D00F00100E8B3042084F80A
:1038500035007949206888424BD077491831206873
:10386000884246D0744930312068884241D072493C
:103870004831206888423CD06F49603120688842D6
:1038800037D06D4978312068884232D06A4990310A
:10389000206888422DD06849A8312068884228D005
:1038A0006449A8392068884223D062499039206849
:1038B00088421ED05F4978392068884219D05D4916
:1038C00060392068884200E041E012D05949483907
:1038D000206888420DD0574930392068884208D086
:1038E000544918392068884203D0524920688842D8
:1038F00006D12068006820F001002168086005E01A
:103900002068006820F001002168086000BF00986E
:10391000401C0090504500D905E02068006800F088
:1039200001000028F3D100BF00BF002084F834005C
:1039300000BF2068006800F0010028B1032000E00B
:103940000BE084F8350002E0012084F83500E06CDB
:10395000002802D02046E16C8847D9E13749206829
:10396000884222D035491431206888421DD033491D
:1039700028312068884218D030493C31206888427C
:1039800013D02E495031206888420ED02B49643123
:103990002068884209D0294978312068884204D0BB
:1039A00026498C312068884201D1012000E00020A6
:1039B0000028D2D02068056894F85C0000F01F0150
:1039C0000420884000EA0900D0B305F00400B8B331
:1039D00094F85C0000F01F0104208840C8F804003F
:1039E00005F4004080B105F4803030B9A06C0028A7
:1039F000B3D02046A16C88478AE1206C0028ACD067
:103A00002046216C884783E105F02000F0BB0A497D
:103A10002068884252D008491831206888424DD029
:103A2000054930312068884248D003494831206830
:103A3000884206E0B80402401000024008540258D0
:103A40004FE03BD0B3492068884237D0B1491831A4
:103A50002068884232D0AF493031206888422DD06A
:103A6000AC4948312068884228D0AB492068884258
:103A700024D0A9491831206888421FD0A649303186
:103A8000206888421AD0A449483100E023E0206829
:103A9000884213D0A0496031206888420ED09E49E8
:103AA00078312068884209D09B499031206888424B
:103AB00004D09949A8312068884206D1206800685E
:103AC00020F008002168086005E02068006820F008
:103AD000040021680860206C10B32046216C8847E0
:103AE00016E194F85C0000F01F010220884000EA13
:103AF0000900E8B305F00200D0B394F85C0000F0D0
:103B00001F0102208840C8F8040005F4004070B18D
:103B100005F4803028B9606C10B12046616C88478C
:103B2000F6E0E06BF0B32046E16B8847F0E005F08B
:103B30002000C0BB77496039206888424DD0754964
:103B400048392068884248D0724930392068884214
:103B500043D070491839206888423ED06D492068AA
:103B600088423AD06B4918312068884235D000E04D
:103B70004EE068493031206888422ED0654948318E
:103B80002068884229D064492068884225D062494B
:103B900018312068884220D05F493031206888423F
:103BA0001BD001E06EE02DE05B494831206888427F
:103BB00013D059496031206888420ED05649783177
:103BC0002068884209D0544990312068884204D046
:103BD0005149A8312068884206D12068006820F049
:103BE00014002168086005E02068006820F00A00E1
:103BF0002168086000BF002084F8340000BF012065
:103C000084F83500E06BE8B32046E16B88477FE03D
:103C100094F85C0000F01F010820884000EA0900C9
:103C200080B305F0080068B33A49603920688842DB
:103C30004AD0384948392068884245D0354930391A
:103C40002068884240D033491839206888423BD0E8
:103C500030492068884237D02E4918312068884280
:103C600032D02C493031206888422DD02949483142
:103C70002068884228D028492068884224D02649D4
:103C8000183100E044E0206888421DD022493031DC
:103C90002068884218D0204948312068884213D0D3
:103CA0001D496031206888420ED01B497831206858
:103CB000884209D0184990312068884204D01649BA
:103CC000A8312068884206D12068006820F01C00D6
:103CD0002168086005E02068006820F00E00216877
:103CE000086094F85C0000F01F0101208840C8F8CB
:103CF00004000120606500BF002084F8340000BF8C
:103D0000012084F83500E06C10B12046E16C884752
:103D100000BF64E570000240100402402DE9F0414C
:103D2000044600F061FC804614B90120BDE8F08132
:103D3000FE492068884249D0FC49183120688842F1
:103D400044D0FA493031206888423FD0F7494831A1
:103D5000206888423AD0F54960312068884235D0E1
:103D6000F24978312068884230D0F049903120689B
:103D700088422BD0ED49A8312068884226D0EC49F2
:103D80002068884222D0EA491831206888421DD034
:103D9000E74930312068884218D0E5494831206829
:103DA000884213D0E2496031206888420ED0E04951
:103DB00078312068884209D0DD49903120688842F6
:103DC00004D0DB49A8312068884201D1012000E0FD
:103DD0000020002873D0606A00B100BF00BF00203F
:103DE00084F8340000BF022084F83500CF492068F1
:103DF000884249D0CD4918312068884244D0CB4907
:103E00003031206888423FD0C84948312068884214
:103E10003AD0C64960312068884235D0C3497831EC
:103E20002068884230D0C1499031206888422BD028
:103E3000BE49A8312068884226D0BD492068884202
:103E400022D0BB491831206888421DD0B849303192
:103E50002068884218D0B64948312068884213D07B
:103E6000B3496031206888420ED0B149783120686A
:103E7000884209D0AE4990312068884204D0AC49CC
:103E8000A8312068884206D12068006820F001002F
:103E90002168086005E02068006820F001002168C2
:103EA00008600DE000F0A0FBA0EB0800052807D992
:103EB00020206065032084F83500012036E76AE0A1
:103EC0002068006800F001000028EBD12068056838
:103ED00098480540D4E90201084321690843616913
:103EE0000843A1690843E1690843216A084305437F
:103EF000606A042803D1D4E90B01084305438E48C6
:103F000000686FF30F00B0F1005F1DD360682928CF
:103F100002D360682E2811D960683F2802D36068F8
:103F200042280BD96068472802D36068482805D921
:103F300060684F2804D36068522801D8012000E04F
:103F4000002008B145F480152068056020684569A7
:103F500025F00705606A0543606A04280DD1A06A50
:103F60000543E06A48B12046FEF7D4F928B1402065
:103F70006065012084F83500D8E620684561204658
:103F8000FEF7A4F8064694F85C0000F01F013F20FD
:103F90008840B0609EE069492068884222D0674925
:103FA0001431206888421DD0644928312068884235
:103FB00018D062493C312068884213D05F495031A3
:103FC000206888420ED05D4964312068884209D05B
:103FD0005A4978312068884204D058498C31206889
:103FE000884201D1012000E00020E0B3534920685D
:103FF000884222D051491431206888421DD04F494F
:1040000028312068884218D04C493C3120688842C9
:1040100013D04A495031206888420ED04749643154
:104020002068884209D0454978312068884204D008
:1040300042498C312068884201D1012000E00020F3
:1040400000B100BF00BF002084F8340000BF022090
:1040500084F835002068056839480540A068402884
:1040600002D1102106E02EE0A068802801D1C10114
:1040700000E00021E06841EAD001206941EAD00176
:10408000606941EAD001A06941EAD001E06941EAF2
:10409000D001206A41EA10100543206805602749D5
:1040A0002068401A1421B0FBF1F08000E065204642
:1040B000FEF70CF8074694F85C0000F01F010120A1
:1040C0008840786006E040206065032084F8350071
:1040D00001202BE61549206888427FD0134918310A
:1040E000206888427AD0114930312068884275D0E2
:1040F0000E4948312068884270D00C4960312068F0
:1041000088426BD0094978312068884266D00749D7
:1041100090312068884261D00449A83120688842E3
:104120005CD003492068884258D00BE01000024060
:10413000100402403F8010FE0010005C085402583A
:104140000F00FEFF3B4918312068884246D03949AC
:1041500030312068884241D0364948312068884251
:104160003CD0344960312068884237D031497831B9
:104170002068884232D02F499031206888422DD063
:104180002C49A8312068884228D02B4920688842D1
:1041900024D029491431206888421FD0264928316B
:1041A000206888421AD024493C312068884215D0C2
:1041B000214950312068884210D01F49643120685D
:1041C00088420BD01C4978312068884206D01A49B1
:1041D0008C312068884200E000E001D1012000E03D
:1041E000002000B32046FDF7E7FFA068802801D13A
:1041F000002060602079216E0860D4E919104860C1
:10420000606860B16068082809D82046FEF736F873
:104210000020E16E0860D4E91C10486003E0002033
:10422000E0662067606700206065012084F8350043
:1042300000207BE5100402400854025870B5044683
:1042400000F0D2F906462546681C10B104480078F3
:10425000054400BF00F0C8F9801BA842FAD370BD26
:104260001400002400B5B5B0142130A8FCF7C8FA3A
:104270004748006808B135B000BD012044490860D6
:10428000BC2101A8FCF7BCFA4FF08070019000201F
:10429000129001A800F004FD08B1FEF70DF900BF6F
:1042A0003C48006840F480503A490860084600687D
:1042B00000F48050009000BF00BF40F2FF603090DB
:1042C0000220319000203290032033900C20349053
:1042D00030A9314800F06EF84FF68370309002201C
:1042E000319000203290032033900C20349030A97C
:1042F0002A4800F05FF84FF47F4030900220319060
:1043000000203290032033900C20349030A92448B0
:1043100000F050F848F23710309002203190002021
:104320003290032033900C20349030A91D4800F0C7
:1043300041F84CF20370309002203190002032900E
:10434000032033900C20349030A9174800F032F845
:104350004FF63F0030900220319000203290032031
:1043600033900C20349030A9104800F023F80D2031
:1043700030900220319000203290032033900C20A6
:10438000349030A90A4800F015F800BF73E7000028
:1043900000000024D44402580020025800100258A3
:1043A000001C025800180258000C02580014025851
:1043B00000080258F8B502460023734DDEE00127DD
:1043C0009F400E6806EA0704002C71D04E68012E4B
:1043D00008D04E68022E05D04E68112E02D04E68CD
:1043E000122E13D190685F000326BE40B0435F00D9
:1043F000CE68BE4030439060506801269E40B04376
:104400000E79C6F300169E4030435060D0685F00BE
:104410000326BE40B0435F008E68BE403043D0608C
:104420004E68022E02D04E68122E13D1DF0802F120
:10443000200656F827005E07F70E0F26BE40B04351
:104440005F07FF0E0E69BE403043DF0802F1200611
:1044500046F8270010685F000326BE40B0430E797F
:1044600006F003065F00BE40304310604E6806F061
:104470008056B6F1805F1BD100BF444E366846F0CF
:104480000206424F3E603E46366806F0020600963F
:1044900000BF00BF3E4E9F0856F827009E07370F0B
:1044A0000F26BE40B0433B4EB24202D100262EE062
:1044B00063E0394EB24201D1012628E0374EB242C4
:1044C00001D1022623E0364EB24201D103261EE07E
:1044D000344EB24201D1042619E0334EB24201D12A
:1044E000052614E0314EB24201D106260FE0304ECF
:1044F000B24201D107260AE02E4EB24201D108266F
:1045000005E02D4EB24201D1092600E00A269F07A0
:104510003F0FBE4030431E4E9F0846F827002868D4
:10452000A0434E6806F48036B6F5803F00D12043A4
:1045300028606868A0434E6806F40036B6F5003F70
:1045400000D1204368604FF0B0463068A0434E6809
:1045500006F48016B6F5801F00D120434FF0B04618
:1045600030607068A0434E6806F40016B6F5001F70
:1045700000D120434FF0B04670605B1C0E68DE40F7
:10458000002E7FF41CAFF8BD80000058F4440258A0
:10459000080400580000025800040258000802589D
:1045A000000C02580010025800140258001802585B
:1045B000001C0258002002580024025810B542691D
:1045C00021EA020302EA010443EA0443836110BDC5
:1045D0000AB1816101E00B04836170470148006802
:1045E000000C70470010005C014800687047000034
:1045F0000C00002403480068034909780844014975
:10460000086070470C0000241400002410B503203B
:1046100000F0C0F801F0D0FA10490968C1F3032195
:104620000F4A515C01F01F0120FA01F40B480068A9
:1046300000F00F001146085C00F01F0024FA00F0A3
:104640000849086008480460002000F00FF808B12D
:10465000012010BD00F036F80020FAE71844025897
:104660004EAC00081C0000241800002470B504465D
:104670001148007808B9012070BD0F4800784FF448
:104680007A71B1FBF0F00D490968B1FBF0F52846ED
:1046900002F009F808B10120EEE7102C07D2002241
:1046A0002146501E00F038F80548046001E0012062
:1046B000E2E70020E0E700001400002418000024D6
:1046C0001000002408B500BF0848006840F0020050
:1046D000064908600846006800F00200009000BF2C
:1046E00000BF052000F056F808BD0000F444025851
:1046F0000146084600280DDB00BF00BF00F01F0385
:1047000001229A4043099B0003F1E023C3F80021F2
:1047100000BF00BF00BF70472DE9F05F80460D4627
:10472000164605F00BFA074639462A46334601F08D
:104730000700C0F1070ABAF1040F02D94FF0040ACA
:1047400001E0C0F1070AD14600F1040ABAF1070FEF
:1047500002D24FF0000A01E0A0F1030AD4464FF064
:10476000010A0AFA09FAAAF1010A0AEA020A0AFA8D
:104770000CFA4FF0010B0BFA0CFBABF1010B0BEA3F
:10478000030B4AEA0B042146404605F0DFF9BDE879
:10479000F09F000000BF00F00702064B19684FF6BB
:1047A000FF031940044B0B4343EA0221014B1960FC
:1047B00000BF70470CED00E00000FA0570B504463C
:1047C00015480068C0F3800048B91348006800F03D
:1047D0000700A04201D0012070BD0020FCE70E4878
:1047E000006820F0070020430B490860FFF7FCFE3B
:1047F000054607E0FFF7F8FE401BB0F57A7F01D9C8
:104800000120E9E7044808380068C0F34030002878
:10481000F0D00020E0E700000C48025810B501F08D
:1048200081F905490968C1F30211044A515C01F09C
:104830001F01C84010BD0000204402584EAC0008C3
:1048400070B50146844D2D6805F00303824D2D6837
:10485000C5F30530804D2D1D2D68C5F300147E4D28
:1048600014352D68C5F3CC0515FB04F501EE105A7F
:10487000B8EE411AF0EE410A00286FD023B1012BA7
:104880004ED0022B6BD16BE0734D283D2D68C5F3E4
:1048900040153DB3704D283D2D68C5F3C1066F4DE1
:1048A00025FA06F201EE102AF8EE411A01EE100A7E
:1048B000B8EE411A81EE812A9FED691AC0EE811A85
:1048C000654D10352D68C5F3080501EE105AB8EE98
:1048D000411A31EE811AF7EE001A31EE211A22EE5A
:1048E000010A1CE001EE100AB8EE411ADFED5D1A74
:1048F00081EE812A9FED5A1AC0EE811A564D10356D
:104900002D68C5F3080501EE105AB8EE411A31EED4
:10491000811AF7EE001A31EE211A22EE010A5BE04D
:1049200001EE100AB8EE411ADFED4F1A81EE812A2E
:104930009FED4B1AC0EE811A474D10352D68C5F317
:10494000080501EE105AB8EE411A31EE811AF7EE61
:10495000001A31EE211A22EE010A3DE077E01DE057
:1049600001EE100AB8EE411A9FED402AC2EE011A7C
:104970009FED3B1A80EE812A374D10352D68C5F327
:10498000080501EE105AB8EE411A32EE011AB7EEE0
:10499000002A31EE021A21EE810A1DE001EE100A12
:1049A000B8EE411ADFED301A81EE812A9FED2C1A04
:1049B000C0EE811A284D10352D68C5F3080501EEAB
:1049C000105AB8EE411A31EE811AF7EE001A31EEA4
:1049D000211A22EE010A00BF00BF1F4D10352D68BD
:1049E000C5F3462501EE105AB8EE411AF7EE001A4B
:1049F00031EE211AC0EE011ABCEEE11A81ED001A67
:104A0000154D10352D68C5F3064501EE105AB8EE68
:104A1000411AF7EE001A31EE211AC0EE011ABCEE6F
:104A2000E11A81ED011A0C4D10352D68C5F30665AC
:104A300001EE105AB8EE411AF7EE001A31EE211AC3
:104A4000C0EE011ABCEEE11A81ED021A03E0002566
:104A50000D604D608D6070BD284402580090D003F9
:104A6000000000460024744C0024744A20BCBE4B55
:104A700070B50146844D2D6805F00303824D2D6805
:104A8000C5F30550804D2D1D2D68C5F300247E4DC6
:104A90001C352D68C5F3CC0515FB04F501EE105A45
:104AA000B8EE411AF0EE410A00286FD023B1012B75
:104AB0004ED0022B6BD16BE0734D283D2D68C5F3B2
:104AC00040153DB3704D283D2D68C5F3C1066F4DAF
:104AD00025FA06F201EE102AF8EE411A01EE100A4C
:104AE000B8EE411A81EE812A9FED691AC0EE811A53
:104AF000654D18352D68C5F3080501EE105AB8EE5E
:104B0000411A31EE811AF7EE001A31EE211A22EE27
:104B1000010A1CE001EE100AB8EE411ADFED5D1A41
:104B200081EE812A9FED5A1AC0EE811A564D183532
:104B30002D68C5F3080501EE105AB8EE411A31EEA2
:104B4000811AF7EE001A31EE211A22EE010A5BE01B
:104B500001EE100AB8EE411ADFED4F1A81EE812AFC
:104B60009FED4B1AC0EE811A474D18352D68C5F3DD
:104B7000080501EE105AB8EE411A31EE811AF7EE2F
:104B8000001A31EE211A22EE010A3DE077E01DE025
:104B900001EE100AB8EE411A9FED402AC2EE011A4A
:104BA0009FED3B1A80EE812A374D18352D68C5F3ED
:104BB000080501EE105AB8EE411A32EE011AB7EEAE
:104BC000002A31EE021A21EE810A1DE001EE100AE0
:104BD000B8EE411ADFED301A81EE812A9FED2C1AD2
:104BE000C0EE811A284D18352D68C5F3080501EE71
:104BF000105AB8EE411A31EE811AF7EE001A31EE72
:104C0000211A22EE010A00BF00BF1F4D18352D6882
:104C1000C5F3462501EE105AB8EE411AF7EE001A18
:104C200031EE211AC0EE011ABCEEE11A81ED001A34
:104C3000154D18352D68C5F3064501EE105AB8EE2E
:104C4000411AF7EE001A31EE211AC0EE011ABCEE3D
:104C5000E11A81ED011A0C4D18352D68C5F3066572
:104C600001EE105AB8EE411AF7EE001A31EE211A91
:104C7000C0EE011ABCEEE11A81ED021A03E0002534
:104C80000D604D608D6070BD284402580090D003C7
:104C9000000000460024744C0024744A20BCBE4B23
:104CA0002DE9F04104460025A846206800F0006088
:104CB000B0F1006F30D1606E48B1B0F5801F0DD0FB
:104CC000B0F5001F10D0B0F5401F15D113E0F94822
:104CD000006840F40030F74908600FE00221201D11
:104CE00003F0A0FA054609E0022104F1240003F0D4
:104CF0004BFB054602E001E0012500BF00BF55B9AE
:104D0000EC482430006820F44010616E0843E94903
:104D10002431086000E0A846208800F48070B0F5D7
:104D2000807F2DD1606D05281AD2DFE800F0030ADC
:104D300010171800DF48006840F40030DD490860B3
:104D400010E00021201D03F06DFA05460AE0002165
:104D500004F1240003F018FB054603E002E001E043
:104D6000012500BF00BF55B9D2482430006820F0AB
:104D70000700616D0843CF492431086000E0A84670
:104D8000208800F40070B0F5007F33D1A06D80283A
:104D900017D003DC40B140281CD10CE0C02817D04C
:104DA000B0F5807F16D114E0C248006840F40030AE
:104DB000C049086010E00021201D03F033FA0546C9
:104DC0000AE0002104F1240003F0DEFA054603E0C6
:104DD00002E001E0012500BF00BF55B9B54824300D
:104DE000006820F4E070A16D0843B24924310860E6
:104DF00000E0A846208800F48060B0F5806F38D1CC
:104E0000D4F8A400B0F5800F19D004DC50B1B0F58F
:104E1000001F1DD10DE0B0F5C00F17D0B0F5000F89
:104E200016D114E0A348006840F40030A14908609E
:104E300010E00021201D03F0F5F905460AE00021ED
:104E400004F1240003F0A0FA054603E002E001E0CB
:104E5000012500BF00BF5DB996482C30006820F4E2
:104E60006000D4F8A410084392492C31086000E097
:104E7000A846208800F40060B0F5006F38D1D4F85F
:104E8000A800B0F1007F19D004DC50B1B0F1807FF0
:104E90001DD10DE0B0F1407F17D0B0F1806F16D179
:104EA00014E08448006840F400308249086010E053
:104EB0000021201D03F0B6F905460AE0002104F1A7
:104EC000240003F061FA054603E002E001E0012559
:104ED00000BF00BF5DB977482C30006820F0E0606B
:104EE000D4F8A810084373492C31086000E0A846A4
:104EF000206800F00070B0F1007F27D1A06CA0B155
:104F0000102804D0202809D030280FD10CE069489F
:104F1000006840F400306749086009E00221201D64
:104F200003F080F9054603E002E001E0012500BF3F
:104F300000BF55B95F482030006820F03000A16CF8
:104F400008435C492031086000E0A846208800F44E
:104F50008050B0F5805F36D1E06DB0F5005F19D0BC
:104F600004DC50B1B0F5805F1DD10DE0B0F5405FBD
:104F700017D0B0F5804F16D114E04E48006840F4C9
:104F800000304C49086010E00021201D03F04AF970
:104F900005460AE0002104F1240003F0F5F9054676
:104FA00003E002E001E0012500BF00BF55B9414820
:104FB0002430006820F4E040E16D08433D4924318D
:104FC000086000E0A846208800F40050B0F5005FBB
:104FD00034D1206EB0F5403F1DD007DC68B1B0F58C
:104FE000803F0BD0B0F5003F18D10DE0B0F5802F19
:104FF00012D0B0F5A02F11D10FE011E00121201D3A
:1050000003F010F905460BE0012104F1240003F040
:10501000BBF9054604E003E002E001E0012500BF22
:1050200000BF55B923482430006820F4E020216EE9
:10503000084320492431086000E0A846208800F495
:105040008040B0F5804F38D1D4F8AC00B0F1405F6B
:105050001DD007DC68B1B0F1805F0BD0B0F1005F0C
:1050600018D10DE0B0F1804F12D0B0F1A04F11D1A6
:105070000FE011E00121201D03F0D4F805460BE0FC
:10508000012104F1240003F07FF9054604E003E068
:1050900002E001E0012500BF00BF6DB905482C30DA
:1050A000006820F0E040D4F8AC10084301492C31EE
:1050B000086002E02C440258A846208800F4004012
:1050C000B0F5004F26D1E06E98B1B0F1805F03D00B
:1050D000B0F1005F0ED106E0F948006840F40030FE
:1050E000F749086008E00121201D03F09BF8054600
:1050F00002E001E0012500BF00BF55B9F0482430AF
:10510000006820F04050E16E0843ED49243108600A
:1051100000E0A846206800F08070B0F1807F27D1C1
:10512000606CA0B1012804D0022809D003280FD157
:105130000CE0E348006840F40030E149086009E011
:105140000221201D03F06EF8054603E002E001E0B5
:10515000012500BF00BF55B9D9482030006820F0B4
:105160000300616C0843D6492031086000E0A8467E
:10517000206800F48000B0F5800F7DD1D148006830
:1051800040F48070CF490860FFF72EFA064606E02B
:10519000FFF72AFA801B642801D9032505E0C948D6
:1051A000006800F480700028F2D000BF85BBC448BE
:1051B0004430006800F44070B4F8B01001F440715D
:1051C000884213D0BE484430006820F44077BC4881
:1051D0004430006840F48030B949443108600846E2
:1051E000006820F48030086008460760D4F8B000FA
:1051F000B0F5807F15D1FFF7F7F9064609E0FFF714
:10520000F3F9801B41F28831884202D9032507E077
:1052100038E0AB4844300068C0F340000028EED0CE
:1052200000BF55BB00BFB4F8B00000F44070B0F54B
:10523000407F0ED1A2481C38006820F47C51A24A5D
:10524000D4F8B000104041EA10109D491C390860A4
:1052500007E09B481C38006820F47C5098491C39B2
:105260000860974844300068B4F8B010C1F30B01EF
:1052700008439349443101E005E001E0086002E0A1
:10528000A84600E0A846207800F0010068B3A06FAF
:10529000182819D005DC48B1082808D0102816D1E4
:1052A0000BE0202811D0282811D10FE011E00121B6
:1052B000201D02F0B7FF05460BE0012104F1240098
:1052C00003F062F8054604E003E002E001E0012596
:1052D00000BF00BF55B97A482830006820F0380078
:1052E000A16F084376492831086000E0A84620787D
:1052F00000F00200022828D1606F062815D2DFE8EE
:1053000000F003040A11121311E00121201D02F024
:1053100089FF05460BE0012104F1240003F034F875
:10532000054604E003E002E001E0012500BF00BF04
:1053300055B963482830006820F00700616F0843C2
:105340005F492831086000E0A846207800F004009A
:1053500004282AD1D4F89000062815D2DFE800F0FE
:1053600003040A11121311E00121201D02F05AFF5B
:1053700005460BE0012104F1240003F005F8054681
:1053800004E003E002E001E0012500BF00BF5DB9D9
:105390004B482C30006820F00700D4F890100843E8
:1053A00047492C31086000E0A846207800F0200032
:1053B000202836D1D4F88C00B0F1405F1DD007DC36
:1053C00068B1B0F1805F0BD0B0F1005F18D10DE093
:1053D000B0F1804F12D0B0F1A04F11D10FE011E029
:1053E0000021201D02F01EFF05460BE0022104F102
:1053F000240002F0C9FF054604E003E002E001E0FA
:10540000012500BF00BF5DB92D482830006820F09D
:10541000E040D4F88C10084329492831086000E0A6
:10542000A846207800F04000402836D1D4F89800F3
:10543000B0F5406F1DD007DC68B1B0F5806F0BD0C0
:10544000B0F5006F18D10DE0B0F5805F12D0B0F567
:10545000A05F11D10FE011E00021201D02F0E2FE5B
:1054600005460BE0022104F1240002F08DFF054601
:1054700004E003E002E001E0012500BF00BF5DB9E8
:105480000F482C30006820F4E050D4F898100843FE
:105490000B492C31086000E0A846207800F080001D
:1054A00080283AD1D4F89C00B0F5C04F23D00DDC51
:1054B00098B1B0F5005F11D0B0F5804F1ED113E068
:1054C0002C44025800480258FFFCFF0FB0F5004F73
:1054D00012D0B0F5204F11D10FE011E00021201DB6
:1054E00002F0A0FE05460BE0022104F1240002F0C8
:1054F0004BFF054604E003E002E001E0012500BFA8
:1055000000BF4DB9BE48006820F46040D4F89C103C
:105510000843BB49086000E0A846207800F0080076
:10552000082817D1D4F88000B0F5805F07D1022198
:1055300004F1240002F028FF08B14FF00108B04840
:10554000001F006820F44050D4F880100843AC4994
:10555000091F0860207800F01000102815D1D4F839
:105560009400B0F5807F07D1022104F1240002F0FD
:105570000BFF08B14FF00108A148006820F440700B
:10558000D4F8941008439E490860206800F4002075
:10559000B0F5002F26D1D4F8A00030B1B0F5803F8F
:1055A00009D0B0F5003F0ED10CE00021201D02F023
:1055B00039FE054609E0022104F1240002F0E4FE70
:1055C000054602E001E0012500BF00BF4DB98C484F
:1055D000006820F44030D4F8A010084388490860DF
:1055E00000E0A846206800F48020B0F5802F2DD17F
:1055F000D4F88400B0F5801F06D0B0F5001F0CD0A1
:10560000B0F5401F11D10FE07D482C38006840F400
:1056100000307B492C39086009E0012104F12400A5
:1056200002F0B2FE054602E001E0012500BF00BF26
:105630005DB97348001F006820F44010D4F884104E
:1056400008436F49091F086000E0A846206800F47D
:105650008030B0F5803F24D1E06C18B1B0F5803FC8
:105660000FD108E066482C38006840F400306449E7
:105670002C39086007E00221201D02F0D3FD054609
:1056800001E0012500BF00BF55B95D480C38006836
:1056900020F48030E16C084359490C39086000E07F
:1056A000A846206800F00050B0F1005F07D1022149
:1056B00004F1240002F068FE08B14FF001082068F0
:1056C00000F40030B0F5003F27D1E06FA0B1B0F595
:1056D000807F06D0B0F5007F0CD0B0F5407F0CD1B4
:1056E00009E047482C38006840F4003044492C3920
:1056F000086004E003E002E001E0012500BF00BF14
:1057000055B93F48001F006820F44070E16F08431E
:105710003B49091F086000E0A846206800F480109B
:10572000B0F5801F09D136480838006820F00040E5
:10573000216F0843324908390860206800F0805022
:10574000B0F1805F0AD12E484838006820F48040CC
:10575000D4F8B41008432A4948390860206800F496
:105760000010B0F5001F09D125480838006820F066
:105770008070A16E0843224908390860206800F053
:105780008040B0F1804F11D100BF1D4848380068FB
:1057900020F400401A494839086008460068D4F8E7
:1057A000B810084316494839086000BF206800F067
:1057B0000040B0F1004F09D111480C38006820F0CA
:1057C0004050216D08430E490C390860206800F4F0
:1057D0000000B0F5000F0AD10948001F006820F44E
:1057E0004000D4F8881008430549091F0860B8F143
:1057F000000F02D10020BDE8F0810120FBE700008E
:10580000584402582DE9F04104460D4614B90120D0
:10581000BDE8F081BD48006800F00F00A8420ED23C
:10582000BA48006820F00F002843B84908600846CD
:10583000006800F00F00A84201D00120E8E72078BE
:1058400000F0040004280ED1B1492069096801F074
:105850007001884207D9AE48006820F070002169C5
:105860000843AB490860207800F00800082811D1EF
:10587000A749091D6069096801F07001884209D9CA
:10588000A348001D006820F0700061690843A0492A
:10589000091D0860207800F01000102811D19C49E3
:1058A000091DA069096801F4E061884209D9984896
:1058B000001D006820F4E060A16908439449091DB7
:1058C0000860207800F02000202811D1904908318C
:1058D000E069096801F07001884209D98C480830F4
:1058E000006820F07000E1690843894908310860C8
:1058F000207800F0020002280ED18549E06809688E
:1059000001F00F01884207D98148006820F00F009C
:10591000E16808437E490860207800F00100002813
:1059200050D07B48006820F47060A1680843784933
:1059300008606068022807D1754818380068C0F30D
:105940004040F8B9012063E76068032807D1704838
:1059500018380068C0F34060A0B9012058E76068BB
:10596000012807D16A4818380068C0F3002048B9F8
:1059700001204DE7664818380068C0F3800008B978
:10598000012045E762480838006820F00700616898
:1059900008435F4908390860FEF726FE064608E01E
:1059A000FEF722FE801B41F28831884201D9032094
:1059B0002EE757480838006800F038006168B0EBFF
:1059C000C10FEDD1207800F0020002280ED150491D
:1059D000E068096801F00F01884207D24C4800686E
:1059E00020F00F00E1680843494908604748006813
:1059F00000F00F00A8420ED94448006820F00F00C4
:105A00002843424908600846006800F00F00A84299
:105A100001D00120FCE6207800F0040004280ED11B
:105A20003B492069096801F07001884207D2384873
:105A3000006820F07000216908433549086020782B
:105A400000F00800082811D13149091D6069096872
:105A500001F07001884209D22D48001D006820F035
:105A60007000616908432A49091D0860207800F028
:105A70001000102811D12649091DA069096801F4F8
:105A8000E061884209D22248001D006820F4E060ED
:105A9000A16908431E49091D0860207800F0200014
:105AA000202811D11A490831E069096801F0700114
:105AB000884209D216480830006820F07000E16979
:105AC000084313490831086000F076F81049096866
:105AD000C1F303210F4A515C01F01F0120FA01F7C5
